{
  "_format": "hh-sol-artifact-1",
  "contractName": "LazyNFT",
  "sourceName": "contracts/LazyNFT.sol",
  "abi": [
    {
      "inputs": [],
      "stateMutability": "nonpayable",
      "type": "constructor"
    },
    {
      "anonymous": false,
      "inputs": [
        {
          "indexed": true,
          "internalType": "address",
          "name": "owner",
          "type": "address"
        },
        {
          "indexed": true,
          "internalType": "address",
          "name": "approved",
          "type": "address"
        },
        {
          "indexed": true,
          "internalType": "uint256",
          "name": "tokenId",
          "type": "uint256"
        }
      ],
      "name": "Approval",
      "type": "event"
    },
    {
      "anonymous": false,
      "inputs": [
        {
          "indexed": true,
          "internalType": "address",
          "name": "owner",
          "type": "address"
        },
        {
          "indexed": true,
          "internalType": "address",
          "name": "operator",
          "type": "address"
        },
        {
          "indexed": false,
          "internalType": "bool",
          "name": "approved",
          "type": "bool"
        }
      ],
      "name": "ApprovalForAll",
      "type": "event"
    },
    {
      "anonymous": false,
      "inputs": [
        {
          "indexed": true,
          "internalType": "bytes32",
          "name": "role",
          "type": "bytes32"
        },
        {
          "indexed": true,
          "internalType": "bytes32",
          "name": "previousAdminRole",
          "type": "bytes32"
        },
        {
          "indexed": true,
          "internalType": "bytes32",
          "name": "newAdminRole",
          "type": "bytes32"
        }
      ],
      "name": "RoleAdminChanged",
      "type": "event"
    },
    {
      "anonymous": false,
      "inputs": [
        {
          "indexed": true,
          "internalType": "bytes32",
          "name": "role",
          "type": "bytes32"
        },
        {
          "indexed": true,
          "internalType": "address",
          "name": "account",
          "type": "address"
        },
        {
          "indexed": true,
          "internalType": "address",
          "name": "sender",
          "type": "address"
        }
      ],
      "name": "RoleGranted",
      "type": "event"
    },
    {
      "anonymous": false,
      "inputs": [
        {
          "indexed": true,
          "internalType": "bytes32",
          "name": "role",
          "type": "bytes32"
        },
        {
          "indexed": true,
          "internalType": "address",
          "name": "account",
          "type": "address"
        },
        {
          "indexed": true,
          "internalType": "address",
          "name": "sender",
          "type": "address"
        }
      ],
      "name": "RoleRevoked",
      "type": "event"
    },
    {
      "anonymous": false,
      "inputs": [
        {
          "indexed": true,
          "internalType": "address",
          "name": "from",
          "type": "address"
        },
        {
          "indexed": true,
          "internalType": "address",
          "name": "to",
          "type": "address"
        },
        {
          "indexed": true,
          "internalType": "uint256",
          "name": "tokenId",
          "type": "uint256"
        }
      ],
      "name": "Transfer",
      "type": "event"
    },
    {
      "inputs": [],
      "name": "DEFAULT_ADMIN_ROLE",
      "outputs": [
        {
          "internalType": "bytes32",
          "name": "",
          "type": "bytes32"
        }
      ],
      "stateMutability": "view",
      "type": "function"
    },
    {
      "inputs": [],
      "name": "MINTER_ROLE",
      "outputs": [
        {
          "internalType": "bytes32",
          "name": "",
          "type": "bytes32"
        }
      ],
      "stateMutability": "view",
      "type": "function"
    },
    {
      "inputs": [
        {
          "internalType": "uint256",
          "name": "tokenId",
          "type": "uint256"
        },
        {
          "internalType": "uint256",
          "name": "minPrice",
          "type": "uint256"
        },
        {
          "internalType": "string",
          "name": "uri",
          "type": "string"
        },
        {
          "internalType": "bytes",
          "name": "signature",
          "type": "bytes"
        }
      ],
      "name": "_verify",
      "outputs": [
        {
          "internalType": "address",
          "name": "",
          "type": "address"
        }
      ],
      "stateMutability": "view",
      "type": "function"
    },
    {
      "inputs": [
        {
          "internalType": "address",
          "name": "to",
          "type": "address"
        },
        {
          "internalType": "uint256",
          "name": "tokenId",
          "type": "uint256"
        }
      ],
      "name": "approve",
      "outputs": [],
      "stateMutability": "nonpayable",
      "type": "function"
    },
    {
      "inputs": [
        {
          "internalType": "address",
          "name": "owner",
          "type": "address"
        }
      ],
      "name": "balanceOf",
      "outputs": [
        {
          "internalType": "uint256",
          "name": "",
          "type": "uint256"
        }
      ],
      "stateMutability": "view",
      "type": "function"
    },
    {
      "inputs": [
        {
          "internalType": "uint256",
          "name": "tokenId",
          "type": "uint256"
        }
      ],
      "name": "getApproved",
      "outputs": [
        {
          "internalType": "address",
          "name": "",
          "type": "address"
        }
      ],
      "stateMutability": "view",
      "type": "function"
    },
    {
      "inputs": [],
      "name": "getChainID",
      "outputs": [
        {
          "internalType": "uint256",
          "name": "",
          "type": "uint256"
        }
      ],
      "stateMutability": "view",
      "type": "function"
    },
    {
      "inputs": [],
      "name": "getMinter",
      "outputs": [
        {
          "internalType": "address",
          "name": "",
          "type": "address"
        }
      ],
      "stateMutability": "view",
      "type": "function"
    },
    {
      "inputs": [
        {
          "internalType": "bytes32",
          "name": "role",
          "type": "bytes32"
        }
      ],
      "name": "getRoleAdmin",
      "outputs": [
        {
          "internalType": "bytes32",
          "name": "",
          "type": "bytes32"
        }
      ],
      "stateMutability": "view",
      "type": "function"
    },
    {
      "inputs": [
        {
          "internalType": "bytes32",
          "name": "role",
          "type": "bytes32"
        },
        {
          "internalType": "address",
          "name": "account",
          "type": "address"
        }
      ],
      "name": "grantRole",
      "outputs": [],
      "stateMutability": "nonpayable",
      "type": "function"
    },
    {
      "inputs": [
        {
          "internalType": "bytes32",
          "name": "role",
          "type": "bytes32"
        },
        {
          "internalType": "address",
          "name": "account",
          "type": "address"
        }
      ],
      "name": "hasRole",
      "outputs": [
        {
          "internalType": "bool",
          "name": "",
          "type": "bool"
        }
      ],
      "stateMutability": "view",
      "type": "function"
    },
    {
      "inputs": [
        {
          "internalType": "address",
          "name": "owner",
          "type": "address"
        },
        {
          "internalType": "address",
          "name": "operator",
          "type": "address"
        }
      ],
      "name": "isApprovedForAll",
      "outputs": [
        {
          "internalType": "bool",
          "name": "",
          "type": "bool"
        }
      ],
      "stateMutability": "view",
      "type": "function"
    },
    {
      "inputs": [],
      "name": "name",
      "outputs": [
        {
          "internalType": "string",
          "name": "",
          "type": "string"
        }
      ],
      "stateMutability": "view",
      "type": "function"
    },
    {
      "inputs": [
        {
          "internalType": "uint256",
          "name": "tokenId",
          "type": "uint256"
        }
      ],
      "name": "ownerOf",
      "outputs": [
        {
          "internalType": "address",
          "name": "",
          "type": "address"
        }
      ],
      "stateMutability": "view",
      "type": "function"
    },
    {
      "inputs": [
        {
          "internalType": "address",
          "name": "",
          "type": "address"
        }
      ],
      "name": "pendingWithdrawals",
      "outputs": [
        {
          "internalType": "uint256",
          "name": "",
          "type": "uint256"
        }
      ],
      "stateMutability": "view",
      "type": "function"
    },
    {
      "inputs": [
        {
          "internalType": "address",
          "name": "redeemer",
          "type": "address"
        },
        {
          "internalType": "uint256",
          "name": "tokenId",
          "type": "uint256"
        },
        {
          "internalType": "uint256",
          "name": "minPrice",
          "type": "uint256"
        },
        {
          "internalType": "string",
          "name": "uri",
          "type": "string"
        },
        {
          "internalType": "bytes",
          "name": "signature",
          "type": "bytes"
        }
      ],
      "name": "redeem",
      "outputs": [],
      "stateMutability": "payable",
      "type": "function"
    },
    {
      "inputs": [
        {
          "internalType": "bytes32",
          "name": "role",
          "type": "bytes32"
        },
        {
          "internalType": "address",
          "name": "account",
          "type": "address"
        }
      ],
      "name": "renounceRole",
      "outputs": [],
      "stateMutability": "nonpayable",
      "type": "function"
    },
    {
      "inputs": [
        {
          "internalType": "bytes32",
          "name": "role",
          "type": "bytes32"
        },
        {
          "internalType": "address",
          "name": "account",
          "type": "address"
        }
      ],
      "name": "revokeRole",
      "outputs": [],
      "stateMutability": "nonpayable",
      "type": "function"
    },
    {
      "inputs": [
        {
          "internalType": "address",
          "name": "from",
          "type": "address"
        },
        {
          "internalType": "address",
          "name": "to",
          "type": "address"
        },
        {
          "internalType": "uint256",
          "name": "tokenId",
          "type": "uint256"
        }
      ],
      "name": "safeTransferFrom",
      "outputs": [],
      "stateMutability": "nonpayable",
      "type": "function"
    },
    {
      "inputs": [
        {
          "internalType": "address",
          "name": "from",
          "type": "address"
        },
        {
          "internalType": "address",
          "name": "to",
          "type": "address"
        },
        {
          "internalType": "uint256",
          "name": "tokenId",
          "type": "uint256"
        },
        {
          "internalType": "bytes",
          "name": "_data",
          "type": "bytes"
        }
      ],
      "name": "safeTransferFrom",
      "outputs": [],
      "stateMutability": "nonpayable",
      "type": "function"
    },
    {
      "inputs": [
        {
          "internalType": "address",
          "name": "operator",
          "type": "address"
        },
        {
          "internalType": "bool",
          "name": "approved",
          "type": "bool"
        }
      ],
      "name": "setApprovalForAll",
      "outputs": [],
      "stateMutability": "nonpayable",
      "type": "function"
    },
    {
      "inputs": [
        {
          "internalType": "bytes4",
          "name": "interfaceId",
          "type": "bytes4"
        }
      ],
      "name": "supportsInterface",
      "outputs": [
        {
          "internalType": "bool",
          "name": "",
          "type": "bool"
        }
      ],
      "stateMutability": "view",
      "type": "function"
    },
    {
      "inputs": [],
      "name": "symbol",
      "outputs": [
        {
          "internalType": "string",
          "name": "",
          "type": "string"
        }
      ],
      "stateMutability": "view",
      "type": "function"
    },
    {
      "inputs": [
        {
          "internalType": "uint256",
          "name": "tokenId",
          "type": "uint256"
        }
      ],
      "name": "tokenURI",
      "outputs": [
        {
          "internalType": "string",
          "name": "",
          "type": "string"
        }
      ],
      "stateMutability": "view",
      "type": "function"
    },
    {
      "inputs": [
        {
          "internalType": "address",
          "name": "from",
          "type": "address"
        },
        {
          "internalType": "address",
          "name": "to",
          "type": "address"
        },
        {
          "internalType": "uint256",
          "name": "tokenId",
          "type": "uint256"
        }
      ],
      "name": "transferFrom",
      "outputs": [],
      "stateMutability": "nonpayable",
      "type": "function"
    }
  ],
  "bytecode": "0x6101406040523480156200001257600080fd5b506040518060400160405280600f81526020017f4c617a794e46542d566f756368657200000000000000000000000000000000008152506040518060400160405280600181526020017f31000000000000000000000000000000000000000000000000000000000000008152506040518060400160405280600881526020017f4c617a794d494e540000000000000000000000000000000000000000000000008152506040518060400160405280600481526020017f4c415a590000000000000000000000000000000000000000000000000000000081525081600090805190602001906200010392919062000216565b5080600190805190602001906200011c92919062000216565b50505060008280519060200120905060008280519060200120905060007f8b73c3c69bb8fe3d512ecc4cf759cc79239f7b179b0ffacaa9a75d522b39400f90508260e081815250508161010081815250504660a0818152505062000188818484620001da60201b60201c565b608081815250503073ffffffffffffffffffffffffffffffffffffffff1660c08173ffffffffffffffffffffffffffffffffffffffff1660601b81525050806101208181525050505050505062000403565b60008383834630604051602001620001f7959493929190620002f9565b6040516020818303038152906040528051906020012090509392505050565b82805462000224906200039e565b90600052602060002090601f01602090048101928262000248576000855562000294565b82601f106200026357805160ff191683800117855562000294565b8280016001018555821562000294579182015b828111156200029357825182559160200191906001019062000276565b5b509050620002a39190620002a7565b5090565b5b80821115620002c2576000816000905550600101620002a8565b5090565b620002d18162000356565b82525050565b620002e2816200036a565b82525050565b620002f38162000394565b82525050565b600060a082019050620003106000830188620002d7565b6200031f6020830187620002d7565b6200032e6040830186620002d7565b6200033d6060830185620002e8565b6200034c6080830184620002c6565b9695505050505050565b6000620003638262000374565b9050919050565b6000819050919050565b600073ffffffffffffffffffffffffffffffffffffffff82169050919050565b6000819050919050565b60006002820490506001821680620003b757607f821691505b60208210811415620003ce57620003cd620003d4565b5b50919050565b7f4e487b7100000000000000000000000000000000000000000000000000000000600052602260045260246000fd5b60805160a05160c05160601c60e051610100516101205161490e620004566000396000612b0901526000612b4b01526000612b2a01526000612a5f01526000612ab501526000612ade015261490e6000f3fe6080604052600436106101665760003560e01c806380da95ed116100d1578063c87b56dd1161008a578063e985e9c511610064578063e985e9c514610551578063f2a1741f1461058e578063f3667517146105cb578063f3f43703146105f657610166565b8063c87b56dd146104c0578063d5391393146104fd578063d547741f1461052857610166565b806380da95ed146103bf57806391d14854146103db57806395d89b4114610418578063a217fddf14610443578063a22cb4651461046e578063b88d4fde1461049757610166565b80632f2ff15d116101235780632f2ff15d1461029f57806336568abe146102c857806342842e0e146102f1578063564b81ef1461031a5780636352211e1461034557806370a082311461038257610166565b806301ffc9a71461016b57806306fdde03146101a8578063081812fc146101d3578063095ea7b31461021057806323b872dd14610239578063248a9ca314610262575b600080fd5b34801561017757600080fd5b50610192600480360381019061018d91906131f2565b610633565b60405161019f91906138b2565b60405180910390f35b3480156101b457600080fd5b506101bd610645565b6040516101ca91906139c5565b60405180910390f35b3480156101df57600080fd5b506101fa60048036038101906101f59190613244565b6106d7565b604051610207919061384b565b60405180910390f35b34801561021c57600080fd5b50610237600480360381019061023291906130aa565b61075c565b005b34801561024557600080fd5b50610260600480360381019061025b9190612fa4565b610874565b005b34801561026e57600080fd5b506102896004803603810190610284919061318d565b6108d4565b60405161029691906138cd565b60405180910390f35b3480156102ab57600080fd5b506102c660048036038101906102c191906131b6565b6108f4565b005b3480156102d457600080fd5b506102ef60048036038101906102ea91906131b6565b610915565b005b3480156102fd57600080fd5b5061031860048036038101906103139190612fa4565b610998565b005b34801561032657600080fd5b5061032f6109b8565b60405161033c9190613ce7565b60405180910390f35b34801561035157600080fd5b5061036c60048036038101906103679190613244565b6109c5565b604051610379919061384b565b60405180910390f35b34801561038e57600080fd5b506103a960048036038101906103a49190612f3f565b610a77565b6040516103b69190613ce7565b60405180910390f35b6103d960048036038101906103d491906130e6565b610b2f565b005b3480156103e757600080fd5b5061040260048036038101906103fd91906131b6565b610d47565b60405161040f91906138b2565b60405180910390f35b34801561042457600080fd5b5061042d610db2565b60405161043a91906139c5565b60405180910390f35b34801561044f57600080fd5b50610458610e44565b60405161046591906138cd565b60405180910390f35b34801561047a57600080fd5b506104956004803603810190610490919061306e565b610e4b565b005b3480156104a357600080fd5b506104be60048036038101906104b99190612ff3565b610e61565b005b3480156104cc57600080fd5b506104e760048036038101906104e29190613244565b610ec3565b6040516104f491906139c5565b60405180910390f35b34801561050957600080fd5b50610512611015565b60405161051f91906138cd565b60405180910390f35b34801561053457600080fd5b5061054f600480360381019061054a91906131b6565b611039565b005b34801561055d57600080fd5b5061057860048036038101906105739190612f68565b61105a565b60405161058591906138b2565b60405180910390f35b34801561059a57600080fd5b506105b560048036038101906105b0919061326d565b6110ee565b6040516105c2919061384b565b60405180910390f35b3480156105d757600080fd5b506105e0611113565b6040516105ed919061384b565b60405180910390f35b34801561060257600080fd5b5061061d60048036038101906106189190612f3f565b61113d565b60405161062a9190613ce7565b60405180910390f35b600061063e82611155565b9050919050565b60606000805461065490613fd8565b80601f016020809104026020016040519081016040528092919081815260200182805461068090613fd8565b80156106cd5780601f106106a2576101008083540402835291602001916106cd565b820191906000526020600020905b8154815290600101906020018083116106b057829003601f168201915b5050505050905090565b60006106e2826111cf565b610721576040517f08c379a000000000000000000000000000000000000000000000000000000000815260040161071890613c27565b60405180910390fd5b6004600083815260200190815260200160002060009054906101000a900473ffffffffffffffffffffffffffffffffffffffff169050919050565b6000610767826109c5565b90508073ffffffffffffffffffffffffffffffffffffffff168373ffffffffffffffffffffffffffffffffffffffff1614156107d8576040517f08c379a00000000000000000000000000000000000000000000000000000000081526004016107cf90613c67565b60405180910390fd5b8073ffffffffffffffffffffffffffffffffffffffff166107f761123b565b73ffffffffffffffffffffffffffffffffffffffff16148061082657506108258161082061123b565b61105a565b5b610865576040517f08c379a000000000000000000000000000000000000000000000000000000000815260040161085c90613b27565b60405180910390fd5b61086f8383611243565b505050565b61088561087f61123b565b826112fc565b6108c4576040517f08c379a00000000000000000000000000000000000000000000000000000000081526004016108bb90613ca7565b60405180910390fd5b6108cf8383836113da565b505050565b600060076000838152602001908152602001600020600101549050919050565b6108fd826108d4565b61090681611641565b6109108383611655565b505050565b61091d61123b565b73ffffffffffffffffffffffffffffffffffffffff168173ffffffffffffffffffffffffffffffffffffffff161461098a576040517f08c379a000000000000000000000000000000000000000000000000000000000815260040161098190613cc7565b60405180910390fd5b6109948282611736565b5050565b6109b383838360405180602001604052806000815250610e61565b505050565b6000804690508091505090565b6000806002600084815260200190815260200160002060009054906101000a900473ffffffffffffffffffffffffffffffffffffffff169050600073ffffffffffffffffffffffffffffffffffffffff168173ffffffffffffffffffffffffffffffffffffffff161415610a6e576040517f08c379a0000000000000000000000000000000000000000000000000000000008152600401610a6590613b67565b60405180910390fd5b80915050919050565b60008073ffffffffffffffffffffffffffffffffffffffff168273ffffffffffffffffffffffffffffffffffffffff161415610ae8576040517f08c379a0000000000000000000000000000000000000000000000000000000008152600401610adf90613b47565b60405180910390fd5b600360008373ffffffffffffffffffffffffffffffffffffffff1673ffffffffffffffffffffffffffffffffffffffff168152602001908152602001600020549050919050565b610b3b848484846110ee565b600960006101000a81548173ffffffffffffffffffffffffffffffffffffffff021916908373ffffffffffffffffffffffffffffffffffffffff160217905550610ba6600960009054906101000a900473ffffffffffffffffffffffffffffffffffffffff16611818565b610bf27f9f2df0fed2c77648de5860a4cc508cd0818c85b8b8a1ab4ceeef8d981c8956a6600960009054906101000a900473ffffffffffffffffffffffffffffffffffffffff16610d47565b610c31576040517f08c379a0000000000000000000000000000000000000000000000000000000008152600401610c2890613c87565b60405180910390fd5b82341015610c74576040517f08c379a0000000000000000000000000000000000000000000000000000000008152600401610c6b90613bc7565b60405180910390fd5b610ca0600960009054906101000a900473ffffffffffffffffffffffffffffffffffffffff16856118a8565b610caa8483611a82565b610cd7600960009054906101000a900473ffffffffffffffffffffffffffffffffffffffff1686866113da565b600960009054906101000a900473ffffffffffffffffffffffffffffffffffffffff1673ffffffffffffffffffffffffffffffffffffffff166108fc349081150290604051600060405180830381858888f19350505050158015610d3f573d6000803e3d6000fd5b505050505050565b60006007600084815260200190815260200160002060000160008373ffffffffffffffffffffffffffffffffffffffff1673ffffffffffffffffffffffffffffffffffffffff16815260200190815260200160002060009054906101000a900460ff16905092915050565b606060018054610dc190613fd8565b80601f0160208091040260200160405190810160405280929190818152602001828054610ded90613fd8565b8015610e3a5780601f10610e0f57610100808354040283529160200191610e3a565b820191906000526020600020905b815481529060010190602001808311610e1d57829003601f168201915b5050505050905090565b6000801b81565b610e5d610e5661123b565b8383611af6565b5050565b610e72610e6c61123b565b836112fc565b610eb1576040517f08c379a0000000000000000000000000000000000000000000000000000000008152600401610ea890613ca7565b60405180910390fd5b610ebd84848484611c63565b50505050565b6060610ece826111cf565b610f0d576040517f08c379a0000000000000000000000000000000000000000000000000000000008152600401610f0490613c07565b60405180910390fd5b6000600660008481526020019081526020016000208054610f2d90613fd8565b80601f0160208091040260200160405190810160405280929190818152602001828054610f5990613fd8565b8015610fa65780601f10610f7b57610100808354040283529160200191610fa6565b820191906000526020600020905b815481529060010190602001808311610f8957829003601f168201915b505050505090506000610fb7611cbf565b9050600081511415610fcd578192505050611010565b600082511115611002578082604051602001610fea9291906137b6565b60405160208183030381529060405292505050611010565b61100b84611cd6565b925050505b919050565b7f9f2df0fed2c77648de5860a4cc508cd0818c85b8b8a1ab4ceeef8d981c8956a681565b611042826108d4565b61104b81611641565b6110558383611736565b505050565b6000600560008473ffffffffffffffffffffffffffffffffffffffff1673ffffffffffffffffffffffffffffffffffffffff16815260200190815260200160002060008373ffffffffffffffffffffffffffffffffffffffff1673ffffffffffffffffffffffffffffffffffffffff16815260200190815260200160002060009054906101000a900460ff16905092915050565b6000806110fc868686611d7d565b90506111088184611de4565b915050949350505050565b6000600960009054906101000a900473ffffffffffffffffffffffffffffffffffffffff16905090565b60086020528060005260406000206000915090505481565b60007f7965db0b000000000000000000000000000000000000000000000000000000007bffffffffffffffffffffffffffffffffffffffffffffffffffffffff1916827bffffffffffffffffffffffffffffffffffffffffffffffffffffffff191614806111c857506111c782611e0b565b5b9050919050565b60008073ffffffffffffffffffffffffffffffffffffffff166002600084815260200190815260200160002060009054906101000a900473ffffffffffffffffffffffffffffffffffffffff1673ffffffffffffffffffffffffffffffffffffffff1614159050919050565b600033905090565b816004600083815260200190815260200160002060006101000a81548173ffffffffffffffffffffffffffffffffffffffff021916908373ffffffffffffffffffffffffffffffffffffffff160217905550808273ffffffffffffffffffffffffffffffffffffffff166112b6836109c5565b73ffffffffffffffffffffffffffffffffffffffff167f8c5be1e5ebec7d5bd14f71427d1e84f3dd0314c0f7b2291e5b200ac8c7c3b92560405160405180910390a45050565b6000611307826111cf565b611346576040517f08c379a000000000000000000000000000000000000000000000000000000000815260040161133d90613b07565b60405180910390fd5b6000611351836109c5565b90508073ffffffffffffffffffffffffffffffffffffffff168473ffffffffffffffffffffffffffffffffffffffff1614806113935750611392818561105a565b5b806113d157508373ffffffffffffffffffffffffffffffffffffffff166113b9846106d7565b73ffffffffffffffffffffffffffffffffffffffff16145b91505092915050565b8273ffffffffffffffffffffffffffffffffffffffff166113fa826109c5565b73ffffffffffffffffffffffffffffffffffffffff1614611450576040517f08c379a000000000000000000000000000000000000000000000000000000000815260040161144790613a67565b60405180910390fd5b600073ffffffffffffffffffffffffffffffffffffffff168273ffffffffffffffffffffffffffffffffffffffff1614156114c0576040517f08c379a00000000000000000000000000000000000000000000000000000000081526004016114b790613aa7565b60405180910390fd5b6114cb838383611eed565b6114d6600082611243565b6001600360008573ffffffffffffffffffffffffffffffffffffffff1673ffffffffffffffffffffffffffffffffffffffff16815260200190815260200160002060008282546115269190613ead565b925050819055506001600360008473ffffffffffffffffffffffffffffffffffffffff1673ffffffffffffffffffffffffffffffffffffffff168152602001908152602001600020600082825461157d9190613dcc565b92505081905550816002600083815260200190815260200160002060006101000a81548173ffffffffffffffffffffffffffffffffffffffff021916908373ffffffffffffffffffffffffffffffffffffffff160217905550808273ffffffffffffffffffffffffffffffffffffffff168473ffffffffffffffffffffffffffffffffffffffff167fddf252ad1be2c89b69c2b068fc378daa952ba7f163c4a11628f55a4df523b3ef60405160405180910390a461163c838383611ef2565b505050565b6116528161164d61123b565b611ef7565b50565b61165f8282610d47565b6117325760016007600084815260200190815260200160002060000160008373ffffffffffffffffffffffffffffffffffffffff1673ffffffffffffffffffffffffffffffffffffffff16815260200190815260200160002060006101000a81548160ff0219169083151502179055506116d761123b565b73ffffffffffffffffffffffffffffffffffffffff168173ffffffffffffffffffffffffffffffffffffffff16837f2f8788117e7eff1d82e926ec794901d17c78024a50270940304540a733656f0d60405160405180910390a45b5050565b6117408282610d47565b156118145760006007600084815260200190815260200160002060000160008373ffffffffffffffffffffffffffffffffffffffff1673ffffffffffffffffffffffffffffffffffffffff16815260200190815260200160002060006101000a81548160ff0219169083151502179055506117b961123b565b73ffffffffffffffffffffffffffffffffffffffff168173ffffffffffffffffffffffffffffffffffffffff16837ff6391f5c32d9c69d2a47ea670b442974b53935d1edc7fd64eb21e047a839171b60405160405180910390a45b5050565b80600960006101000a81548173ffffffffffffffffffffffffffffffffffffffff021916908373ffffffffffffffffffffffffffffffffffffffff1602179055506118a57f9f2df0fed2c77648de5860a4cc508cd0818c85b8b8a1ab4ceeef8d981c8956a6600960009054906101000a900473ffffffffffffffffffffffffffffffffffffffff16611f94565b50565b600073ffffffffffffffffffffffffffffffffffffffff168273ffffffffffffffffffffffffffffffffffffffff161415611918576040517f08c379a000000000000000000000000000000000000000000000000000000000815260040161190f90613be7565b60405180910390fd5b611921816111cf565b15611961576040517f08c379a000000000000000000000000000000000000000000000000000000000815260040161195890613a87565b60405180910390fd5b61196d60008383611eed565b6001600360008473ffffffffffffffffffffffffffffffffffffffff1673ffffffffffffffffffffffffffffffffffffffff16815260200190815260200160002060008282546119bd9190613dcc565b92505081905550816002600083815260200190815260200160002060006101000a81548173ffffffffffffffffffffffffffffffffffffffff021916908373ffffffffffffffffffffffffffffffffffffffff160217905550808273ffffffffffffffffffffffffffffffffffffffff16600073ffffffffffffffffffffffffffffffffffffffff167fddf252ad1be2c89b69c2b068fc378daa952ba7f163c4a11628f55a4df523b3ef60405160405180910390a4611a7e60008383611ef2565b5050565b611a8b826111cf565b611aca576040517f08c379a0000000000000000000000000000000000000000000000000000000008152600401611ac190613b87565b60405180910390fd5b80600660008481526020019081526020016000209080519060200190611af1929190612d4e565b505050565b8173ffffffffffffffffffffffffffffffffffffffff168373ffffffffffffffffffffffffffffffffffffffff161415611b65576040517f08c379a0000000000000000000000000000000000000000000000000000000008152600401611b5c90613ac7565b60405180910390fd5b80600560008573ffffffffffffffffffffffffffffffffffffffff1673ffffffffffffffffffffffffffffffffffffffff16815260200190815260200160002060008473ffffffffffffffffffffffffffffffffffffffff1673ffffffffffffffffffffffffffffffffffffffff16815260200190815260200160002060006101000a81548160ff0219169083151502179055508173ffffffffffffffffffffffffffffffffffffffff168373ffffffffffffffffffffffffffffffffffffffff167f17307eab39ab6107e8899845ad3d59bd9653f200f220920489ca2b5937696c3183604051611c5691906138b2565b60405180910390a3505050565b611c6e8484846113da565b611c7a84848484611fa2565b611cb9576040517f08c379a0000000000000000000000000000000000000000000000000000000008152600401611cb090613a47565b60405180910390fd5b50505050565b606060405180602001604052806000815250905090565b6060611ce1826111cf565b611d20576040517f08c379a0000000000000000000000000000000000000000000000000000000008152600401611d1790613c47565b60405180910390fd5b6000611d2a611cbf565b90506000815111611d4a5760405180602001604052806000815250611d75565b80611d5484612139565b604051602001611d659291906137b6565b6040516020818303038152906040525b915050919050565b6000611ddb7f6316f9ddd4d59a364f3b95c26bab9d392c3380ace0fff15e91ed76f0d8bcd15a85858580519060200120604051602001611dc0949392919061393b565b604051602081830303815290604052805190602001206122e6565b90509392505050565b6000806000611df38585612300565b91509150611e0081612383565b819250505092915050565b60007f80ac58cd000000000000000000000000000000000000000000000000000000007bffffffffffffffffffffffffffffffffffffffffffffffffffffffff1916827bffffffffffffffffffffffffffffffffffffffffffffffffffffffff19161480611ed657507f5b5e139f000000000000000000000000000000000000000000000000000000007bffffffffffffffffffffffffffffffffffffffffffffffffffffffff1916827bffffffffffffffffffffffffffffffffffffffffffffffffffffffff1916145b80611ee65750611ee5826126d4565b5b9050919050565b505050565b505050565b611f018282610d47565b611f9057611f268173ffffffffffffffffffffffffffffffffffffffff16601461273e565b611f348360001c602061273e565b604051602001611f45929190613811565b6040516020818303038152906040526040517f08c379a0000000000000000000000000000000000000000000000000000000008152600401611f8791906139c5565b60405180910390fd5b5050565b611f9e8282611655565b5050565b6000611fc38473ffffffffffffffffffffffffffffffffffffffff16612a38565b1561212c578373ffffffffffffffffffffffffffffffffffffffff1663150b7a02611fec61123b565b8786866040518563ffffffff1660e01b815260040161200e9493929190613866565b602060405180830381600087803b15801561202857600080fd5b505af192505050801561205957506040513d601f19601f82011682018060405250810190612056919061321b565b60015b6120dc573d8060008114612089576040519150601f19603f3d011682016040523d82523d6000602084013e61208e565b606091505b506000815114156120d4576040517f08c379a00000000000000000000000000000000000000000000000000000000081526004016120cb90613a47565b60405180910390fd5b805181602001fd5b63150b7a0260e01b7bffffffffffffffffffffffffffffffffffffffffffffffffffffffff1916817bffffffffffffffffffffffffffffffffffffffffffffffffffffffff191614915050612131565b600190505b949350505050565b60606000821415612181576040518060400160405280600181526020017f300000000000000000000000000000000000000000000000000000000000000081525090506122e1565b600082905060005b600082146121b357808061219c9061403b565b915050600a826121ac9190613e22565b9150612189565b60008167ffffffffffffffff8111156121f5577f4e487b7100000000000000000000000000000000000000000000000000000000600052604160045260246000fd5b6040519080825280601f01601f1916602001820160405280156122275781602001600182028036833780820191505090505b5090505b600085146122da576001826122409190613ead565b9150600a8561224f919061408e565b603061225b9190613dcc565b60f81b818381518110612297577f4e487b7100000000000000000000000000000000000000000000000000000000600052603260045260246000fd5b60200101907effffffffffffffffffffffffffffffffffffffffffffffffffffffffffffff1916908160001a905350600a856122d39190613e22565b945061222b565b8093505050505b919050565b60006122f96122f3612a5b565b83612b75565b9050919050565b6000806041835114156123425760008060006020860151925060408601519150606086015160001a905061233687828585612ba8565b9450945050505061237c565b604083511415612373576000806020850151915060408501519050612368868383612cb5565b93509350505061237c565b60006002915091505b9250929050565b600060048111156123bd577f4e487b7100000000000000000000000000000000000000000000000000000000600052602160045260246000fd5b8160048111156123f6577f4e487b7100000000000000000000000000000000000000000000000000000000600052602160045260246000fd5b1415612401576126d1565b6001600481111561243b577f4e487b7100000000000000000000000000000000000000000000000000000000600052602160045260246000fd5b816004811115612474577f4e487b7100000000000000000000000000000000000000000000000000000000600052602160045260246000fd5b14156124b5576040517f08c379a00000000000000000000000000000000000000000000000000000000081526004016124ac906139e7565b60405180910390fd5b600260048111156124ef577f4e487b7100000000000000000000000000000000000000000000000000000000600052602160045260246000fd5b816004811115612528577f4e487b7100000000000000000000000000000000000000000000000000000000600052602160045260246000fd5b1415612569576040517f08c379a000000000000000000000000000000000000000000000000000000000815260040161256090613a27565b60405180910390fd5b600360048111156125a3577f4e487b7100000000000000000000000000000000000000000000000000000000600052602160045260246000fd5b8160048111156125dc577f4e487b7100000000000000000000000000000000000000000000000000000000600052602160045260246000fd5b141561261d576040517f08c379a000000000000000000000000000000000000000000000000000000000815260040161261490613ae7565b60405180910390fd5b600480811115612656577f4e487b7100000000000000000000000000000000000000000000000000000000600052602160045260246000fd5b81600481111561268f577f4e487b7100000000000000000000000000000000000000000000000000000000600052602160045260246000fd5b14156126d0576040517f08c379a00000000000000000000000000000000000000000000000000000000081526004016126c790613ba7565b60405180910390fd5b5b50565b60007f01ffc9a7000000000000000000000000000000000000000000000000000000007bffffffffffffffffffffffffffffffffffffffffffffffffffffffff1916827bffffffffffffffffffffffffffffffffffffffffffffffffffffffff1916149050919050565b6060600060028360026127519190613e53565b61275b9190613dcc565b67ffffffffffffffff81111561279a577f4e487b7100000000000000000000000000000000000000000000000000000000600052604160045260246000fd5b6040519080825280601f01601f1916602001820160405280156127cc5781602001600182028036833780820191505090505b5090507f30000000000000000000000000000000000000000000000000000000000000008160008151811061282a577f4e487b7100000000000000000000000000000000000000000000000000000000600052603260045260246000fd5b60200101907effffffffffffffffffffffffffffffffffffffffffffffffffffffffffffff1916908160001a9053507f7800000000000000000000000000000000000000000000000000000000000000816001815181106128b4577f4e487b7100000000000000000000000000000000000000000000000000000000600052603260045260246000fd5b60200101907effffffffffffffffffffffffffffffffffffffffffffffffffffffffffffff1916908160001a905350600060018460026128f49190613e53565b6128fe9190613dcc565b90505b60018111156129ea577f3031323334353637383961626364656600000000000000000000000000000000600f861660108110612966577f4e487b7100000000000000000000000000000000000000000000000000000000600052603260045260246000fd5b1a60f81b8282815181106129a3577f4e487b7100000000000000000000000000000000000000000000000000000000600052603260045260246000fd5b60200101907effffffffffffffffffffffffffffffffffffffffffffffffffffffffffffff1916908160001a905350600485901c9450806129e390613fae565b9050612901565b5060008414612a2e576040517f08c379a0000000000000000000000000000000000000000000000000000000008152600401612a2590613a07565b60405180910390fd5b8091505092915050565b6000808273ffffffffffffffffffffffffffffffffffffffff163b119050919050565b60007f000000000000000000000000000000000000000000000000000000000000000073ffffffffffffffffffffffffffffffffffffffff163073ffffffffffffffffffffffffffffffffffffffff16148015612ad757507f000000000000000000000000000000000000000000000000000000000000000046145b15612b04577f00000000000000000000000000000000000000000000000000000000000000009050612b72565b612b6f7f00000000000000000000000000000000000000000000000000000000000000007f00000000000000000000000000000000000000000000000000000000000000007f0000000000000000000000000000000000000000000000000000000000000000612d14565b90505b90565b60008282604051602001612b8a9291906137da565b60405160208183030381529060405280519060200120905092915050565b6000807f7fffffffffffffffffffffffffffffff5d576e7357a4501ddfe92f46681b20a08360001c1115612be3576000600391509150612cac565b601b8560ff1614158015612bfb5750601c8560ff1614155b15612c0d576000600491509150612cac565b600060018787878760405160008152602001604052604051612c329493929190613980565b6020604051602081039080840390855afa158015612c54573d6000803e3d6000fd5b505050602060405103519050600073ffffffffffffffffffffffffffffffffffffffff168173ffffffffffffffffffffffffffffffffffffffff161415612ca357600060019250925050612cac565b80600092509250505b94509492505050565b60008060007f7fffffffffffffffffffffffffffffffffffffffffffffffffffffffffffffff60001b841690506000601b60ff8660001c901c612cf89190613dcc565b9050612d0687828885612ba8565b935093505050935093915050565b60008383834630604051602001612d2f9594939291906138e8565b6040516020818303038152906040528051906020012090509392505050565b828054612d5a90613fd8565b90600052602060002090601f016020900481019282612d7c5760008555612dc3565b82601f10612d9557805160ff1916838001178555612dc3565b82800160010185558215612dc3579182015b82811115612dc2578251825591602001919060010190612da7565b5b509050612dd09190612dd4565b5090565b5b80821115612ded576000816000905550600101612dd5565b5090565b6000612e04612dff84613d27565b613d02565b905082815260208101848484011115612e1c57600080fd5b612e27848285613f6c565b509392505050565b6000612e42612e3d84613d58565b613d02565b905082815260208101848484011115612e5a57600080fd5b612e65848285613f6c565b509392505050565b600081359050612e7c81614865565b92915050565b600081359050612e918161487c565b92915050565b600081359050612ea681614893565b92915050565b600081359050612ebb816148aa565b92915050565b600081519050612ed0816148aa565b92915050565b600082601f830112612ee757600080fd5b8135612ef7848260208601612df1565b91505092915050565b600082601f830112612f1157600080fd5b8135612f21848260208601612e2f565b91505092915050565b600081359050612f39816148c1565b92915050565b600060208284031215612f5157600080fd5b6000612f5f84828501612e6d565b91505092915050565b60008060408385031215612f7b57600080fd5b6000612f8985828601612e6d565b9250506020612f9a85828601612e6d565b9150509250929050565b600080600060608486031215612fb957600080fd5b6000612fc786828701612e6d565b9350506020612fd886828701612e6d565b9250506040612fe986828701612f2a565b9150509250925092565b6000806000806080858703121561300957600080fd5b600061301787828801612e6d565b945050602061302887828801612e6d565b935050604061303987828801612f2a565b925050606085013567ffffffffffffffff81111561305657600080fd5b61306287828801612ed6565b91505092959194509250565b6000806040838503121561308157600080fd5b600061308f85828601612e6d565b92505060206130a085828601612e82565b9150509250929050565b600080604083850312156130bd57600080fd5b60006130cb85828601612e6d565b92505060206130dc85828601612f2a565b9150509250929050565b600080600080600060a086880312156130fe57600080fd5b600061310c88828901612e6d565b955050602061311d88828901612f2a565b945050604061312e88828901612f2a565b935050606086013567ffffffffffffffff81111561314b57600080fd5b61315788828901612f00565b925050608086013567ffffffffffffffff81111561317457600080fd5b61318088828901612ed6565b9150509295509295909350565b60006020828403121561319f57600080fd5b60006131ad84828501612e97565b91505092915050565b600080604083850312156131c957600080fd5b60006131d785828601612e97565b92505060206131e885828601612e6d565b9150509250929050565b60006020828403121561320457600080fd5b600061321284828501612eac565b91505092915050565b60006020828403121561322d57600080fd5b600061323b84828501612ec1565b91505092915050565b60006020828403121561325657600080fd5b600061326484828501612f2a565b91505092915050565b6000806000806080858703121561328357600080fd5b600061329187828801612f2a565b94505060206132a287828801612f2a565b935050604085013567ffffffffffffffff8111156132bf57600080fd5b6132cb87828801612f00565b925050606085013567ffffffffffffffff8111156132e857600080fd5b6132f487828801612ed6565b91505092959194509250565b61330981613ee1565b82525050565b61331881613ef3565b82525050565b61332781613eff565b82525050565b61333e61333982613eff565b614084565b82525050565b600061334f82613d89565b6133598185613d9f565b9350613369818560208601613f7b565b6133728161417b565b840191505092915050565b600061338882613d94565b6133928185613db0565b93506133a2818560208601613f7b565b6133ab8161417b565b840191505092915050565b60006133c182613d94565b6133cb8185613dc1565b93506133db818560208601613f7b565b80840191505092915050565b60006133f4601883613db0565b91506133ff8261418c565b602082019050919050565b6000613417602083613db0565b9150613422826141b5565b602082019050919050565b600061343a601f83613db0565b9150613445826141de565b602082019050919050565b600061345d603283613db0565b915061346882614207565b604082019050919050565b6000613480602583613db0565b915061348b82614256565b604082019050919050565b60006134a3601c83613db0565b91506134ae826142a5565b602082019050919050565b60006134c6600283613dc1565b91506134d1826142ce565b600282019050919050565b60006134e9602483613db0565b91506134f4826142f7565b604082019050919050565b600061350c601983613db0565b915061351782614346565b602082019050919050565b600061352f602283613db0565b915061353a8261436f565b604082019050919050565b6000613552602c83613db0565b915061355d826143be565b604082019050919050565b6000613575603883613db0565b91506135808261440d565b604082019050919050565b6000613598602a83613db0565b91506135a38261445c565b604082019050919050565b60006135bb602983613db0565b91506135c6826144ab565b604082019050919050565b60006135de602e83613db0565b91506135e9826144fa565b604082019050919050565b6000613601602283613db0565b915061360c82614549565b604082019050919050565b6000613624601c83613db0565b915061362f82614598565b602082019050919050565b6000613647602083613db0565b9150613652826145c1565b602082019050919050565b600061366a603183613db0565b9150613675826145ea565b604082019050919050565b600061368d602c83613db0565b915061369882614639565b604082019050919050565b60006136b0602f83613db0565b91506136bb82614688565b604082019050919050565b60006136d3602183613db0565b91506136de826146d7565b604082019050919050565b60006136f6602183613db0565b915061370182614726565b604082019050919050565b6000613719603183613db0565b915061372482614775565b604082019050919050565b600061373c601783613dc1565b9150613747826147c4565b601782019050919050565b600061375f601183613dc1565b915061376a826147ed565b601182019050919050565b6000613782602f83613db0565b915061378d82614816565b604082019050919050565b6137a181613f55565b82525050565b6137b081613f5f565b82525050565b60006137c282856133b6565b91506137ce82846133b6565b91508190509392505050565b60006137e5826134b9565b91506137f1828561332d565b602082019150613801828461332d565b6020820191508190509392505050565b600061381c8261372f565b915061382882856133b6565b915061383382613752565b915061383f82846133b6565b91508190509392505050565b60006020820190506138606000830184613300565b92915050565b600060808201905061387b6000830187613300565b6138886020830186613300565b6138956040830185613798565b81810360608301526138a78184613344565b905095945050505050565b60006020820190506138c7600083018461330f565b92915050565b60006020820190506138e2600083018461331e565b92915050565b600060a0820190506138fd600083018861331e565b61390a602083018761331e565b613917604083018661331e565b6139246060830185613798565b6139316080830184613300565b9695505050505050565b6000608082019050613950600083018761331e565b61395d6020830186613798565b61396a6040830185613798565b613977606083018461331e565b95945050505050565b6000608082019050613995600083018761331e565b6139a260208301866137a7565b6139af604083018561331e565b6139bc606083018461331e565b95945050505050565b600060208201905081810360008301526139df818461337d565b905092915050565b60006020820190508181036000830152613a00816133e7565b9050919050565b60006020820190508181036000830152613a208161340a565b9050919050565b60006020820190508181036000830152613a408161342d565b9050919050565b60006020820190508181036000830152613a6081613450565b9050919050565b60006020820190508181036000830152613a8081613473565b9050919050565b60006020820190508181036000830152613aa081613496565b9050919050565b60006020820190508181036000830152613ac0816134dc565b9050919050565b60006020820190508181036000830152613ae0816134ff565b9050919050565b60006020820190508181036000830152613b0081613522565b9050919050565b60006020820190508181036000830152613b2081613545565b9050919050565b60006020820190508181036000830152613b4081613568565b9050919050565b60006020820190508181036000830152613b608161358b565b9050919050565b60006020820190508181036000830152613b80816135ae565b9050919050565b60006020820190508181036000830152613ba0816135d1565b9050919050565b60006020820190508181036000830152613bc0816135f4565b9050919050565b60006020820190508181036000830152613be081613617565b9050919050565b60006020820190508181036000830152613c008161363a565b9050919050565b60006020820190508181036000830152613c208161365d565b9050919050565b60006020820190508181036000830152613c4081613680565b9050919050565b60006020820190508181036000830152613c60816136a3565b9050919050565b60006020820190508181036000830152613c80816136c6565b9050919050565b60006020820190508181036000830152613ca0816136e9565b9050919050565b60006020820190508181036000830152613cc08161370c565b9050919050565b60006020820190508181036000830152613ce081613775565b9050919050565b6000602082019050613cfc6000830184613798565b92915050565b6000613d0c613d1d565b9050613d18828261400a565b919050565b6000604051905090565b600067ffffffffffffffff821115613d4257613d4161414c565b5b613d4b8261417b565b9050602081019050919050565b600067ffffffffffffffff821115613d7357613d7261414c565b5b613d7c8261417b565b9050602081019050919050565b600081519050919050565b600081519050919050565b600082825260208201905092915050565b600082825260208201905092915050565b600081905092915050565b6000613dd782613f55565b9150613de283613f55565b9250827fffffffffffffffffffffffffffffffffffffffffffffffffffffffffffffffff03821115613e1757613e166140bf565b5b828201905092915050565b6000613e2d82613f55565b9150613e3883613f55565b925082613e4857613e476140ee565b5b828204905092915050565b6000613e5e82613f55565b9150613e6983613f55565b9250817fffffffffffffffffffffffffffffffffffffffffffffffffffffffffffffffff0483118215151615613ea257613ea16140bf565b5b828202905092915050565b6000613eb882613f55565b9150613ec383613f55565b925082821015613ed657613ed56140bf565b5b828203905092915050565b6000613eec82613f35565b9050919050565b60008115159050919050565b6000819050919050565b60007fffffffff0000000000000000000000000000000000000000000000000000000082169050919050565b600073ffffffffffffffffffffffffffffffffffffffff82169050919050565b6000819050919050565b600060ff82169050919050565b82818337600083830152505050565b60005b83811015613f99578082015181840152602081019050613f7e565b83811115613fa8576000848401525b50505050565b6000613fb982613f55565b91506000821415613fcd57613fcc6140bf565b5b600182039050919050565b60006002820490506001821680613ff057607f821691505b602082108114156140045761400361411d565b5b50919050565b6140138261417b565b810181811067ffffffffffffffff821117156140325761403161414c565b5b80604052505050565b600061404682613f55565b91507fffffffffffffffffffffffffffffffffffffffffffffffffffffffffffffffff821415614079576140786140bf565b5b600182019050919050565b6000819050919050565b600061409982613f55565b91506140a483613f55565b9250826140b4576140b36140ee565b5b828206905092915050565b7f4e487b7100000000000000000000000000000000000000000000000000000000600052601160045260246000fd5b7f4e487b7100000000000000000000000000000000000000000000000000000000600052601260045260246000fd5b7f4e487b7100000000000000000000000000000000000000000000000000000000600052602260045260246000fd5b7f4e487b7100000000000000000000000000000000000000000000000000000000600052604160045260246000fd5b6000601f19601f8301169050919050565b7f45434453413a20696e76616c6964207369676e61747572650000000000000000600082015250565b7f537472696e67733a20686578206c656e67746820696e73756666696369656e74600082015250565b7f45434453413a20696e76616c6964207369676e6174757265206c656e67746800600082015250565b7f4552433732313a207472616e7366657220746f206e6f6e20455243373231526560008201527f63656976657220696d706c656d656e7465720000000000000000000000000000602082015250565b7f4552433732313a207472616e736665722066726f6d20696e636f72726563742060008201527f6f776e6572000000000000000000000000000000000000000000000000000000602082015250565b7f4552433732313a20746f6b656e20616c7265616479206d696e74656400000000600082015250565b7f1901000000000000000000000000000000000000000000000000000000000000600082015250565b7f4552433732313a207472616e7366657220746f20746865207a65726f2061646460008201527f7265737300000000000000000000000000000000000000000000000000000000602082015250565b7f4552433732313a20617070726f766520746f2063616c6c657200000000000000600082015250565b7f45434453413a20696e76616c6964207369676e6174757265202773272076616c60008201527f7565000000000000000000000000000000000000000000000000000000000000602082015250565b7f4552433732313a206f70657261746f7220717565727920666f72206e6f6e657860008201527f697374656e7420746f6b656e0000000000000000000000000000000000000000602082015250565b7f4552433732313a20617070726f76652063616c6c6572206973206e6f74206f7760008201527f6e6572206e6f7220617070726f76656420666f7220616c6c0000000000000000602082015250565b7f4552433732313a2062616c616e636520717565727920666f7220746865207a6560008201527f726f206164647265737300000000000000000000000000000000000000000000602082015250565b7f4552433732313a206f776e657220717565727920666f72206e6f6e657869737460008201527f656e7420746f6b656e0000000000000000000000000000000000000000000000602082015250565b7f45524337323155524953746f726167653a2055524920736574206f66206e6f6e60008201527f6578697374656e7420746f6b656e000000000000000000000000000000000000602082015250565b7f45434453413a20696e76616c6964207369676e6174757265202776272076616c60008201527f7565000000000000000000000000000000000000000000000000000000000000602082015250565b7f496e73756666696369656e742066756e647320746f2072656465656d00000000600082015250565b7f4552433732313a206d696e7420746f20746865207a65726f2061646472657373600082015250565b7f45524337323155524953746f726167653a2055524920717565727920666f722060008201527f6e6f6e6578697374656e7420746f6b656e000000000000000000000000000000602082015250565b7f4552433732313a20617070726f76656420717565727920666f72206e6f6e657860008201527f697374656e7420746f6b656e0000000000000000000000000000000000000000602082015250565b7f4552433732314d657461646174613a2055524920717565727920666f72206e6f60008201527f6e6578697374656e7420746f6b656e0000000000000000000000000000000000602082015250565b7f4552433732313a20617070726f76616c20746f2063757272656e74206f776e6560008201527f7200000000000000000000000000000000000000000000000000000000000000602082015250565b7f5369676e617475726520696e76616c6964206f7220756e617574686f72697a6560008201527f6400000000000000000000000000000000000000000000000000000000000000602082015250565b7f4552433732313a207472616e736665722063616c6c6572206973206e6f74206f60008201527f776e6572206e6f7220617070726f766564000000000000000000000000000000602082015250565b7f416363657373436f6e74726f6c3a206163636f756e7420000000000000000000600082015250565b7f206973206d697373696e6720726f6c6520000000000000000000000000000000600082015250565b7f416363657373436f6e74726f6c3a2063616e206f6e6c792072656e6f756e636560008201527f20726f6c657320666f722073656c660000000000000000000000000000000000602082015250565b61486e81613ee1565b811461487957600080fd5b50565b61488581613ef3565b811461489057600080fd5b50565b61489c81613eff565b81146148a757600080fd5b50565b6148b381613f09565b81146148be57600080fd5b50565b6148ca81613f55565b81146148d557600080fd5b5056fea2646970667358221220643d48d85046b0e9a56f7a4106027311bb6f461e74362812bb1143b2e8bd6b6d64736f6c63430008040033",
  "linkReferences": {},
  "deployedLinkReferences": {}
}