{
  "_format": "hh-sol-artifact-1",
  "contractName": "LazyNFT",
  "sourceName": "contracts/LazyNFT.sol",
  "abi": [
    {
      "inputs": [],
      "stateMutability": "nonpayable",
      "type": "constructor"
    },
    {
      "anonymous": false,
      "inputs": [
        {
          "indexed": true,
          "internalType": "address",
          "name": "owner",
          "type": "address"
        },
        {
          "indexed": true,
          "internalType": "address",
          "name": "approved",
          "type": "address"
        },
        {
          "indexed": true,
          "internalType": "uint256",
          "name": "tokenId",
          "type": "uint256"
        }
      ],
      "name": "Approval",
      "type": "event"
    },
    {
      "anonymous": false,
      "inputs": [
        {
          "indexed": true,
          "internalType": "address",
          "name": "owner",
          "type": "address"
        },
        {
          "indexed": true,
          "internalType": "address",
          "name": "operator",
          "type": "address"
        },
        {
          "indexed": false,
          "internalType": "bool",
          "name": "approved",
          "type": "bool"
        }
      ],
      "name": "ApprovalForAll",
      "type": "event"
    },
    {
      "anonymous": false,
      "inputs": [
        {
          "indexed": true,
          "internalType": "bytes32",
          "name": "role",
          "type": "bytes32"
        },
        {
          "indexed": true,
          "internalType": "bytes32",
          "name": "previousAdminRole",
          "type": "bytes32"
        },
        {
          "indexed": true,
          "internalType": "bytes32",
          "name": "newAdminRole",
          "type": "bytes32"
        }
      ],
      "name": "RoleAdminChanged",
      "type": "event"
    },
    {
      "anonymous": false,
      "inputs": [
        {
          "indexed": true,
          "internalType": "bytes32",
          "name": "role",
          "type": "bytes32"
        },
        {
          "indexed": true,
          "internalType": "address",
          "name": "account",
          "type": "address"
        },
        {
          "indexed": true,
          "internalType": "address",
          "name": "sender",
          "type": "address"
        }
      ],
      "name": "RoleGranted",
      "type": "event"
    },
    {
      "anonymous": false,
      "inputs": [
        {
          "indexed": true,
          "internalType": "bytes32",
          "name": "role",
          "type": "bytes32"
        },
        {
          "indexed": true,
          "internalType": "address",
          "name": "account",
          "type": "address"
        },
        {
          "indexed": true,
          "internalType": "address",
          "name": "sender",
          "type": "address"
        }
      ],
      "name": "RoleRevoked",
      "type": "event"
    },
    {
      "anonymous": false,
      "inputs": [
        {
          "indexed": true,
          "internalType": "address",
          "name": "from",
          "type": "address"
        },
        {
          "indexed": true,
          "internalType": "address",
          "name": "to",
          "type": "address"
        },
        {
          "indexed": true,
          "internalType": "uint256",
          "name": "tokenId",
          "type": "uint256"
        }
      ],
      "name": "Transfer",
      "type": "event"
    },
    {
      "inputs": [],
      "name": "DEFAULT_ADMIN_ROLE",
      "outputs": [
        {
          "internalType": "bytes32",
          "name": "",
          "type": "bytes32"
        }
      ],
      "stateMutability": "view",
      "type": "function"
    },
    {
      "inputs": [],
      "name": "MINTER_ROLE",
      "outputs": [
        {
          "internalType": "bytes32",
          "name": "",
          "type": "bytes32"
        }
      ],
      "stateMutability": "view",
      "type": "function"
    },
    {
      "inputs": [
        {
          "internalType": "uint256",
          "name": "tokenId",
          "type": "uint256"
        },
        {
          "internalType": "uint256",
          "name": "minPrice",
          "type": "uint256"
        },
        {
          "internalType": "string",
          "name": "uri",
          "type": "string"
        },
        {
          "internalType": "bytes",
          "name": "signature",
          "type": "bytes"
        }
      ],
      "name": "_verify",
      "outputs": [
        {
          "internalType": "address",
          "name": "",
          "type": "address"
        }
      ],
      "stateMutability": "view",
      "type": "function"
    },
    {
      "inputs": [
        {
          "internalType": "address",
          "name": "to",
          "type": "address"
        },
        {
          "internalType": "uint256",
          "name": "tokenId",
          "type": "uint256"
        }
      ],
      "name": "approve",
      "outputs": [],
      "stateMutability": "nonpayable",
      "type": "function"
    },
    {
      "inputs": [],
      "name": "availableToWithdraw",
      "outputs": [
        {
          "internalType": "uint256",
          "name": "",
          "type": "uint256"
        }
      ],
      "stateMutability": "view",
      "type": "function"
    },
    {
      "inputs": [
        {
          "internalType": "address",
          "name": "owner",
          "type": "address"
        }
      ],
      "name": "balanceOf",
      "outputs": [
        {
          "internalType": "uint256",
          "name": "",
          "type": "uint256"
        }
      ],
      "stateMutability": "view",
      "type": "function"
    },
    {
      "inputs": [
        {
          "internalType": "uint256",
          "name": "tokenId",
          "type": "uint256"
        }
      ],
      "name": "getApproved",
      "outputs": [
        {
          "internalType": "address",
          "name": "",
          "type": "address"
        }
      ],
      "stateMutability": "view",
      "type": "function"
    },
    {
      "inputs": [],
      "name": "getChainID",
      "outputs": [
        {
          "internalType": "uint256",
          "name": "",
          "type": "uint256"
        }
      ],
      "stateMutability": "view",
      "type": "function"
    },
    {
      "inputs": [],
      "name": "getMinter",
      "outputs": [
        {
          "internalType": "address",
          "name": "",
          "type": "address"
        }
      ],
      "stateMutability": "view",
      "type": "function"
    },
    {
      "inputs": [
        {
          "internalType": "bytes32",
          "name": "role",
          "type": "bytes32"
        }
      ],
      "name": "getRoleAdmin",
      "outputs": [
        {
          "internalType": "bytes32",
          "name": "",
          "type": "bytes32"
        }
      ],
      "stateMutability": "view",
      "type": "function"
    },
    {
      "inputs": [
        {
          "internalType": "bytes32",
          "name": "role",
          "type": "bytes32"
        },
        {
          "internalType": "address",
          "name": "account",
          "type": "address"
        }
      ],
      "name": "grantRole",
      "outputs": [],
      "stateMutability": "nonpayable",
      "type": "function"
    },
    {
      "inputs": [
        {
          "internalType": "bytes32",
          "name": "role",
          "type": "bytes32"
        },
        {
          "internalType": "address",
          "name": "account",
          "type": "address"
        }
      ],
      "name": "hasRole",
      "outputs": [
        {
          "internalType": "bool",
          "name": "",
          "type": "bool"
        }
      ],
      "stateMutability": "view",
      "type": "function"
    },
    {
      "inputs": [
        {
          "internalType": "address",
          "name": "owner",
          "type": "address"
        },
        {
          "internalType": "address",
          "name": "operator",
          "type": "address"
        }
      ],
      "name": "isApprovedForAll",
      "outputs": [
        {
          "internalType": "bool",
          "name": "",
          "type": "bool"
        }
      ],
      "stateMutability": "view",
      "type": "function"
    },
    {
      "inputs": [],
      "name": "name",
      "outputs": [
        {
          "internalType": "string",
          "name": "",
          "type": "string"
        }
      ],
      "stateMutability": "view",
      "type": "function"
    },
    {
      "inputs": [
        {
          "internalType": "uint256",
          "name": "tokenId",
          "type": "uint256"
        }
      ],
      "name": "ownerOf",
      "outputs": [
        {
          "internalType": "address",
          "name": "",
          "type": "address"
        }
      ],
      "stateMutability": "view",
      "type": "function"
    },
    {
      "inputs": [
        {
          "internalType": "address",
          "name": "",
          "type": "address"
        }
      ],
      "name": "pendingWithdrawals",
      "outputs": [
        {
          "internalType": "uint256",
          "name": "",
          "type": "uint256"
        }
      ],
      "stateMutability": "view",
      "type": "function"
    },
    {
      "inputs": [
        {
          "internalType": "address",
          "name": "redeemer",
          "type": "address"
        },
        {
          "internalType": "uint256",
          "name": "tokenId",
          "type": "uint256"
        },
        {
          "internalType": "uint256",
          "name": "minPrice",
          "type": "uint256"
        },
        {
          "internalType": "string",
          "name": "uri",
          "type": "string"
        },
        {
          "internalType": "bytes",
          "name": "signature",
          "type": "bytes"
        }
      ],
      "name": "redeem",
      "outputs": [
        {
          "internalType": "uint256",
          "name": "",
          "type": "uint256"
        }
      ],
      "stateMutability": "payable",
      "type": "function"
    },
    {
      "inputs": [
        {
          "internalType": "bytes32",
          "name": "role",
          "type": "bytes32"
        },
        {
          "internalType": "address",
          "name": "account",
          "type": "address"
        }
      ],
      "name": "renounceRole",
      "outputs": [],
      "stateMutability": "nonpayable",
      "type": "function"
    },
    {
      "inputs": [
        {
          "internalType": "bytes32",
          "name": "role",
          "type": "bytes32"
        },
        {
          "internalType": "address",
          "name": "account",
          "type": "address"
        }
      ],
      "name": "revokeRole",
      "outputs": [],
      "stateMutability": "nonpayable",
      "type": "function"
    },
    {
      "inputs": [
        {
          "internalType": "address",
          "name": "from",
          "type": "address"
        },
        {
          "internalType": "address",
          "name": "to",
          "type": "address"
        },
        {
          "internalType": "uint256",
          "name": "tokenId",
          "type": "uint256"
        }
      ],
      "name": "safeTransferFrom",
      "outputs": [],
      "stateMutability": "nonpayable",
      "type": "function"
    },
    {
      "inputs": [
        {
          "internalType": "address",
          "name": "from",
          "type": "address"
        },
        {
          "internalType": "address",
          "name": "to",
          "type": "address"
        },
        {
          "internalType": "uint256",
          "name": "tokenId",
          "type": "uint256"
        },
        {
          "internalType": "bytes",
          "name": "_data",
          "type": "bytes"
        }
      ],
      "name": "safeTransferFrom",
      "outputs": [],
      "stateMutability": "nonpayable",
      "type": "function"
    },
    {
      "inputs": [
        {
          "internalType": "address",
          "name": "operator",
          "type": "address"
        },
        {
          "internalType": "bool",
          "name": "approved",
          "type": "bool"
        }
      ],
      "name": "setApprovalForAll",
      "outputs": [],
      "stateMutability": "nonpayable",
      "type": "function"
    },
    {
      "inputs": [
        {
          "internalType": "bytes4",
          "name": "interfaceId",
          "type": "bytes4"
        }
      ],
      "name": "supportsInterface",
      "outputs": [
        {
          "internalType": "bool",
          "name": "",
          "type": "bool"
        }
      ],
      "stateMutability": "view",
      "type": "function"
    },
    {
      "inputs": [],
      "name": "symbol",
      "outputs": [
        {
          "internalType": "string",
          "name": "",
          "type": "string"
        }
      ],
      "stateMutability": "view",
      "type": "function"
    },
    {
      "inputs": [
        {
          "internalType": "uint256",
          "name": "tokenId",
          "type": "uint256"
        }
      ],
      "name": "tokenURI",
      "outputs": [
        {
          "internalType": "string",
          "name": "",
          "type": "string"
        }
      ],
      "stateMutability": "view",
      "type": "function"
    },
    {
      "inputs": [
        {
          "internalType": "address",
          "name": "from",
          "type": "address"
        },
        {
          "internalType": "address",
          "name": "to",
          "type": "address"
        },
        {
          "internalType": "uint256",
          "name": "tokenId",
          "type": "uint256"
        }
      ],
      "name": "transferFrom",
      "outputs": [],
      "stateMutability": "nonpayable",
      "type": "function"
    },
    {
      "inputs": [],
      "name": "withdraw",
      "outputs": [],
      "stateMutability": "nonpayable",
      "type": "function"
    }
  ],
  "bytecode": "0x6101406040523480156200001257600080fd5b506040518060400160405280600f81526020017f4c617a794e46542d566f756368657200000000000000000000000000000000008152506040518060400160405280600181526020017f31000000000000000000000000000000000000000000000000000000000000008152506040518060400160405280600881526020017f4c617a794d494e540000000000000000000000000000000000000000000000008152506040518060400160405280600481526020017f4c415a590000000000000000000000000000000000000000000000000000000081525081600090805190602001906200010392919062000216565b5080600190805190602001906200011c92919062000216565b50505060008280519060200120905060008280519060200120905060007f8b73c3c69bb8fe3d512ecc4cf759cc79239f7b179b0ffacaa9a75d522b39400f90508260e081815250508161010081815250504660a0818152505062000188818484620001da60201b60201c565b608081815250503073ffffffffffffffffffffffffffffffffffffffff1660c08173ffffffffffffffffffffffffffffffffffffffff1660601b81525050806101208181525050505050505062000403565b60008383834630604051602001620001f7959493929190620002f9565b6040516020818303038152906040528051906020012090509392505050565b82805462000224906200039e565b90600052602060002090601f01602090048101928262000248576000855562000294565b82601f106200026357805160ff191683800117855562000294565b8280016001018555821562000294579182015b828111156200029357825182559160200191906001019062000276565b5b509050620002a39190620002a7565b5090565b5b80821115620002c2576000816000905550600101620002a8565b5090565b620002d18162000356565b82525050565b620002e2816200036a565b82525050565b620002f38162000394565b82525050565b600060a082019050620003106000830188620002d7565b6200031f6020830187620002d7565b6200032e6040830186620002d7565b6200033d6060830185620002e8565b6200034c6080830184620002c6565b9695505050505050565b6000620003638262000374565b9050919050565b6000819050919050565b600073ffffffffffffffffffffffffffffffffffffffff82169050919050565b6000819050919050565b60006002820490506001821680620003b757607f821691505b60208210811415620003ce57620003cd620003d4565b5b50919050565b7f4e487b7100000000000000000000000000000000000000000000000000000000600052602260045260246000fd5b60805160a05160c05160601c60e0516101005161012051614cba620004566000396000612db701526000612df901526000612dd801526000612d0d01526000612d6301526000612d8c0152614cba6000f3fe60806040526004361061019c5760003560e01c806380da95ed116100ec578063d53913931161008a578063e985e9c511610064578063e985e9c5146105dd578063f2a1741f1461061a578063f366751714610657578063f3f43703146106825761019c565b8063d53913931461055e578063d547741f14610589578063e322ad2b146105b25761019c565b8063a217fddf116100c6578063a217fddf146104a4578063a22cb465146104cf578063b88d4fde146104f8578063c87b56dd146105215761019c565b806380da95ed1461040c57806391d148541461043c57806395d89b41146104795761019c565b80632f2ff15d1161015957806342842e0e1161013357806342842e0e1461033e578063564b81ef146103675780636352211e1461039257806370a08231146103cf5761019c565b80632f2ff15d146102d557806336568abe146102fe5780633ccfd60b146103275761019c565b806301ffc9a7146101a157806306fdde03146101de578063081812fc14610209578063095ea7b31461024657806323b872dd1461026f578063248a9ca314610298575b600080fd5b3480156101ad57600080fd5b506101c860048036038101906101c391906134a0565b6106bf565b6040516101d59190613ba6565b60405180910390f35b3480156101ea57600080fd5b506101f36106d1565b6040516102009190613cb9565b60405180910390f35b34801561021557600080fd5b50610230600480360381019061022b91906134f2565b610763565b60405161023d9190613b3f565b60405180910390f35b34801561025257600080fd5b5061026d60048036038101906102689190613358565b6107e8565b005b34801561027b57600080fd5b5061029660048036038101906102919190613252565b610900565b005b3480156102a457600080fd5b506102bf60048036038101906102ba919061343b565b610960565b6040516102cc9190613bc1565b60405180910390f35b3480156102e157600080fd5b506102fc60048036038101906102f79190613464565b610980565b005b34801561030a57600080fd5b5061032560048036038101906103209190613464565b6109a1565b005b34801561033357600080fd5b5061033c610a24565b005b34801561034a57600080fd5b5061036560048036038101906103609190613252565b610be9565b005b34801561037357600080fd5b5061037c610c09565b604051610389919061401b565b60405180910390f35b34801561039e57600080fd5b506103b960048036038101906103b491906134f2565b610c16565b6040516103c69190613b3f565b60405180910390f35b3480156103db57600080fd5b506103f660048036038101906103f191906131ed565b610cc8565b604051610403919061401b565b60405180910390f35b61042660048036038101906104219190613394565b610d80565b604051610433919061401b565b60405180910390f35b34801561044857600080fd5b50610463600480360381019061045e9190613464565b610fae565b6040516104709190613ba6565b60405180910390f35b34801561048557600080fd5b5061048e611019565b60405161049b9190613cb9565b60405180910390f35b3480156104b057600080fd5b506104b96110ab565b6040516104c69190613bc1565b60405180910390f35b3480156104db57600080fd5b506104f660048036038101906104f1919061331c565b6110b2565b005b34801561050457600080fd5b5061051f600480360381019061051a91906132a1565b6110c8565b005b34801561052d57600080fd5b50610548600480360381019061054391906134f2565b61112a565b6040516105559190613cb9565b60405180910390f35b34801561056a57600080fd5b5061057361127c565b6040516105809190613bc1565b60405180910390f35b34801561059557600080fd5b506105b060048036038101906105ab9190613464565b6112a0565b005b3480156105be57600080fd5b506105c76112c1565b6040516105d4919061401b565b60405180910390f35b3480156105e957600080fd5b5061060460048036038101906105ff9190613216565b611308565b6040516106119190613ba6565b60405180910390f35b34801561062657600080fd5b50610641600480360381019061063c919061351b565b61139c565b60405161064e9190613b3f565b60405180910390f35b34801561066357600080fd5b5061066c6113c1565b6040516106799190613b3f565b60405180910390f35b34801561068e57600080fd5b506106a960048036038101906106a491906131ed565b6113eb565b6040516106b6919061401b565b60405180910390f35b60006106ca82611403565b9050919050565b6060600080546106e09061430c565b80601f016020809104026020016040519081016040528092919081815260200182805461070c9061430c565b80156107595780601f1061072e57610100808354040283529160200191610759565b820191906000526020600020905b81548152906001019060200180831161073c57829003601f168201915b5050505050905090565b600061076e8261147d565b6107ad576040517f08c379a00000000000000000000000000000000000000000000000000000000081526004016107a490613f3b565b60405180910390fd5b6004600083815260200190815260200160002060009054906101000a900473ffffffffffffffffffffffffffffffffffffffff169050919050565b60006107f382610c16565b90508073ffffffffffffffffffffffffffffffffffffffff168373ffffffffffffffffffffffffffffffffffffffff161415610864576040517f08c379a000000000000000000000000000000000000000000000000000000000815260040161085b90613f9b565b60405180910390fd5b8073ffffffffffffffffffffffffffffffffffffffff166108836114e9565b73ffffffffffffffffffffffffffffffffffffffff1614806108b257506108b1816108ac6114e9565b611308565b5b6108f1576040517f08c379a00000000000000000000000000000000000000000000000000000000081526004016108e890613e1b565b60405180910390fd5b6108fb83836114f1565b505050565b61091161090b6114e9565b826115aa565b610950576040517f08c379a000000000000000000000000000000000000000000000000000000000815260040161094790613fdb565b60405180910390fd5b61095b838383611688565b505050565b600060076000838152602001908152602001600020600101549050919050565b61098982610960565b610992816118ef565b61099c8383611903565b505050565b6109a96114e9565b73ffffffffffffffffffffffffffffffffffffffff168173ffffffffffffffffffffffffffffffffffffffff1614610a16576040517f08c379a0000000000000000000000000000000000000000000000000000000008152600401610a0d90613ffb565b60405180910390fd5b610a2082826119e4565b5050565b610a4e7f9f2df0fed2c77648de5860a4cc508cd0818c85b8b8a1ab4ceeef8d981c8956a633610fae565b610a8d576040517f08c379a0000000000000000000000000000000000000000000000000000000008152600401610a8490613f7b565b60405180910390fd5b60003390506000600860008373ffffffffffffffffffffffffffffffffffffffff1673ffffffffffffffffffffffffffffffffffffffff168152602001908152602001600020541415610b15576040517f08c379a0000000000000000000000000000000000000000000000000000000008152600401610b0c90613e9b565b60405180910390fd5b6000600860008373ffffffffffffffffffffffffffffffffffffffff1673ffffffffffffffffffffffffffffffffffffffff1681526020019081526020016000205490506000600860008473ffffffffffffffffffffffffffffffffffffffff1673ffffffffffffffffffffffffffffffffffffffff168152602001908152602001600020819055508173ffffffffffffffffffffffffffffffffffffffff166108fc829081150290604051600060405180830381858888f19350505050158015610be4573d6000803e3d6000fd5b505050565b610c04838383604051806020016040528060008152506110c8565b505050565b6000804690508091505090565b6000806002600084815260200190815260200160002060009054906101000a900473ffffffffffffffffffffffffffffffffffffffff169050600073ffffffffffffffffffffffffffffffffffffffff168173ffffffffffffffffffffffffffffffffffffffff161415610cbf576040517f08c379a0000000000000000000000000000000000000000000000000000000008152600401610cb690613e5b565b60405180910390fd5b80915050919050565b60008073ffffffffffffffffffffffffffffffffffffffff168273ffffffffffffffffffffffffffffffffffffffff161415610d39576040517f08c379a0000000000000000000000000000000000000000000000000000000008152600401610d3090613e3b565b60405180910390fd5b600360008373ffffffffffffffffffffffffffffffffffffffff1673ffffffffffffffffffffffffffffffffffffffff168152602001908152602001600020549050919050565b6000610d8e8585858561139c565b600960006101000a81548173ffffffffffffffffffffffffffffffffffffffff021916908373ffffffffffffffffffffffffffffffffffffffff160217905550610df9600960009054906101000a900473ffffffffffffffffffffffffffffffffffffffff16611ac6565b610e457f9f2df0fed2c77648de5860a4cc508cd0818c85b8b8a1ab4ceeef8d981c8956a6600960009054906101000a900473ffffffffffffffffffffffffffffffffffffffff16610fae565b610e84576040517f08c379a0000000000000000000000000000000000000000000000000000000008152600401610e7b90613fbb565b60405180910390fd5b83341015610ec7576040517f08c379a0000000000000000000000000000000000000000000000000000000008152600401610ebe90613edb565b60405180910390fd5b610ef3600960009054906101000a900473ffffffffffffffffffffffffffffffffffffffff1686611b56565b610efd8584611d30565b610f2a600960009054906101000a900473ffffffffffffffffffffffffffffffffffffffff168787611688565b3460086000600960009054906101000a900473ffffffffffffffffffffffffffffffffffffffff1673ffffffffffffffffffffffffffffffffffffffff1673ffffffffffffffffffffffffffffffffffffffff1681526020019081526020016000206000828254610f9b9190614100565b9250508190555084905095945050505050565b60006007600084815260200190815260200160002060000160008373ffffffffffffffffffffffffffffffffffffffff1673ffffffffffffffffffffffffffffffffffffffff16815260200190815260200160002060009054906101000a900460ff16905092915050565b6060600180546110289061430c565b80601f01602080910402602001604051908101604052809291908181526020018280546110549061430c565b80156110a15780601f10611076576101008083540402835291602001916110a1565b820191906000526020600020905b81548152906001019060200180831161108457829003601f168201915b5050505050905090565b6000801b81565b6110c46110bd6114e9565b8383611da4565b5050565b6110d96110d36114e9565b836115aa565b611118576040517f08c379a000000000000000000000000000000000000000000000000000000000815260040161110f90613fdb565b60405180910390fd5b61112484848484611f11565b50505050565b60606111358261147d565b611174576040517f08c379a000000000000000000000000000000000000000000000000000000000815260040161116b90613f1b565b60405180910390fd5b60006006600084815260200190815260200160002080546111949061430c565b80601f01602080910402602001604051908101604052809291908181526020018280546111c09061430c565b801561120d5780601f106111e25761010080835404028352916020019161120d565b820191906000526020600020905b8154815290600101906020018083116111f057829003601f168201915b50505050509050600061121e611f6d565b9050600081511415611234578192505050611277565b600082511115611269578082604051602001611251929190613aaa565b60405160208183030381529060405292505050611277565b61127284611f84565b925050505b919050565b7f9f2df0fed2c77648de5860a4cc508cd0818c85b8b8a1ab4ceeef8d981c8956a681565b6112a982610960565b6112b2816118ef565b6112bc83836119e4565b505050565b6000600860003373ffffffffffffffffffffffffffffffffffffffff1673ffffffffffffffffffffffffffffffffffffffff16815260200190815260200160002054905090565b6000600560008473ffffffffffffffffffffffffffffffffffffffff1673ffffffffffffffffffffffffffffffffffffffff16815260200190815260200160002060008373ffffffffffffffffffffffffffffffffffffffff1673ffffffffffffffffffffffffffffffffffffffff16815260200190815260200160002060009054906101000a900460ff16905092915050565b6000806113aa86868661202b565b90506113b68184612092565b915050949350505050565b6000600960009054906101000a900473ffffffffffffffffffffffffffffffffffffffff16905090565b60086020528060005260406000206000915090505481565b60007f7965db0b000000000000000000000000000000000000000000000000000000007bffffffffffffffffffffffffffffffffffffffffffffffffffffffff1916827bffffffffffffffffffffffffffffffffffffffffffffffffffffffff191614806114765750611475826120b9565b5b9050919050565b60008073ffffffffffffffffffffffffffffffffffffffff166002600084815260200190815260200160002060009054906101000a900473ffffffffffffffffffffffffffffffffffffffff1673ffffffffffffffffffffffffffffffffffffffff1614159050919050565b600033905090565b816004600083815260200190815260200160002060006101000a81548173ffffffffffffffffffffffffffffffffffffffff021916908373ffffffffffffffffffffffffffffffffffffffff160217905550808273ffffffffffffffffffffffffffffffffffffffff1661156483610c16565b73ffffffffffffffffffffffffffffffffffffffff167f8c5be1e5ebec7d5bd14f71427d1e84f3dd0314c0f7b2291e5b200ac8c7c3b92560405160405180910390a45050565b60006115b58261147d565b6115f4576040517f08c379a00000000000000000000000000000000000000000000000000000000081526004016115eb90613dfb565b60405180910390fd5b60006115ff83610c16565b90508073ffffffffffffffffffffffffffffffffffffffff168473ffffffffffffffffffffffffffffffffffffffff16148061164157506116408185611308565b5b8061167f57508373ffffffffffffffffffffffffffffffffffffffff1661166784610763565b73ffffffffffffffffffffffffffffffffffffffff16145b91505092915050565b8273ffffffffffffffffffffffffffffffffffffffff166116a882610c16565b73ffffffffffffffffffffffffffffffffffffffff16146116fe576040517f08c379a00000000000000000000000000000000000000000000000000000000081526004016116f590613d5b565b60405180910390fd5b600073ffffffffffffffffffffffffffffffffffffffff168273ffffffffffffffffffffffffffffffffffffffff16141561176e576040517f08c379a000000000000000000000000000000000000000000000000000000000815260040161176590613d9b565b60405180910390fd5b61177983838361219b565b6117846000826114f1565b6001600360008573ffffffffffffffffffffffffffffffffffffffff1673ffffffffffffffffffffffffffffffffffffffff16815260200190815260200160002060008282546117d491906141e1565b925050819055506001600360008473ffffffffffffffffffffffffffffffffffffffff1673ffffffffffffffffffffffffffffffffffffffff168152602001908152602001600020600082825461182b9190614100565b92505081905550816002600083815260200190815260200160002060006101000a81548173ffffffffffffffffffffffffffffffffffffffff021916908373ffffffffffffffffffffffffffffffffffffffff160217905550808273ffffffffffffffffffffffffffffffffffffffff168473ffffffffffffffffffffffffffffffffffffffff167fddf252ad1be2c89b69c2b068fc378daa952ba7f163c4a11628f55a4df523b3ef60405160405180910390a46118ea8383836121a0565b505050565b611900816118fb6114e9565b6121a5565b50565b61190d8282610fae565b6119e05760016007600084815260200190815260200160002060000160008373ffffffffffffffffffffffffffffffffffffffff1673ffffffffffffffffffffffffffffffffffffffff16815260200190815260200160002060006101000a81548160ff0219169083151502179055506119856114e9565b73ffffffffffffffffffffffffffffffffffffffff168173ffffffffffffffffffffffffffffffffffffffff16837f2f8788117e7eff1d82e926ec794901d17c78024a50270940304540a733656f0d60405160405180910390a45b5050565b6119ee8282610fae565b15611ac25760006007600084815260200190815260200160002060000160008373ffffffffffffffffffffffffffffffffffffffff1673ffffffffffffffffffffffffffffffffffffffff16815260200190815260200160002060006101000a81548160ff021916908315150217905550611a676114e9565b73ffffffffffffffffffffffffffffffffffffffff168173ffffffffffffffffffffffffffffffffffffffff16837ff6391f5c32d9c69d2a47ea670b442974b53935d1edc7fd64eb21e047a839171b60405160405180910390a45b5050565b80600960006101000a81548173ffffffffffffffffffffffffffffffffffffffff021916908373ffffffffffffffffffffffffffffffffffffffff160217905550611b537f9f2df0fed2c77648de5860a4cc508cd0818c85b8b8a1ab4ceeef8d981c8956a6600960009054906101000a900473ffffffffffffffffffffffffffffffffffffffff16612242565b50565b600073ffffffffffffffffffffffffffffffffffffffff168273ffffffffffffffffffffffffffffffffffffffff161415611bc6576040517f08c379a0000000000000000000000000000000000000000000000000000000008152600401611bbd90613efb565b60405180910390fd5b611bcf8161147d565b15611c0f576040517f08c379a0000000000000000000000000000000000000000000000000000000008152600401611c0690613d7b565b60405180910390fd5b611c1b6000838361219b565b6001600360008473ffffffffffffffffffffffffffffffffffffffff1673ffffffffffffffffffffffffffffffffffffffff1681526020019081526020016000206000828254611c6b9190614100565b92505081905550816002600083815260200190815260200160002060006101000a81548173ffffffffffffffffffffffffffffffffffffffff021916908373ffffffffffffffffffffffffffffffffffffffff160217905550808273ffffffffffffffffffffffffffffffffffffffff16600073ffffffffffffffffffffffffffffffffffffffff167fddf252ad1be2c89b69c2b068fc378daa952ba7f163c4a11628f55a4df523b3ef60405160405180910390a4611d2c600083836121a0565b5050565b611d398261147d565b611d78576040517f08c379a0000000000000000000000000000000000000000000000000000000008152600401611d6f90613e7b565b60405180910390fd5b80600660008481526020019081526020016000209080519060200190611d9f929190612ffc565b505050565b8173ffffffffffffffffffffffffffffffffffffffff168373ffffffffffffffffffffffffffffffffffffffff161415611e13576040517f08c379a0000000000000000000000000000000000000000000000000000000008152600401611e0a90613dbb565b60405180910390fd5b80600560008573ffffffffffffffffffffffffffffffffffffffff1673ffffffffffffffffffffffffffffffffffffffff16815260200190815260200160002060008473ffffffffffffffffffffffffffffffffffffffff1673ffffffffffffffffffffffffffffffffffffffff16815260200190815260200160002060006101000a81548160ff0219169083151502179055508173ffffffffffffffffffffffffffffffffffffffff168373ffffffffffffffffffffffffffffffffffffffff167f17307eab39ab6107e8899845ad3d59bd9653f200f220920489ca2b5937696c3183604051611f049190613ba6565b60405180910390a3505050565b611f1c848484611688565b611f2884848484612250565b611f67576040517f08c379a0000000000000000000000000000000000000000000000000000000008152600401611f5e90613d3b565b60405180910390fd5b50505050565b606060405180602001604052806000815250905090565b6060611f8f8261147d565b611fce576040517f08c379a0000000000000000000000000000000000000000000000000000000008152600401611fc590613f5b565b60405180910390fd5b6000611fd8611f6d565b90506000815111611ff85760405180602001604052806000815250612023565b80612002846123e7565b604051602001612013929190613aaa565b6040516020818303038152906040525b915050919050565b60006120897f6316f9ddd4d59a364f3b95c26bab9d392c3380ace0fff15e91ed76f0d8bcd15a8585858051906020012060405160200161206e9493929190613c2f565b60405160208183030381529060405280519060200120612594565b90509392505050565b60008060006120a185856125ae565b915091506120ae81612631565b819250505092915050565b60007f80ac58cd000000000000000000000000000000000000000000000000000000007bffffffffffffffffffffffffffffffffffffffffffffffffffffffff1916827bffffffffffffffffffffffffffffffffffffffffffffffffffffffff1916148061218457507f5b5e139f000000000000000000000000000000000000000000000000000000007bffffffffffffffffffffffffffffffffffffffffffffffffffffffff1916827bffffffffffffffffffffffffffffffffffffffffffffffffffffffff1916145b80612194575061219382612982565b5b9050919050565b505050565b505050565b6121af8282610fae565b61223e576121d48173ffffffffffffffffffffffffffffffffffffffff1660146129ec565b6121e28360001c60206129ec565b6040516020016121f3929190613b05565b6040516020818303038152906040526040517f08c379a00000000000000000000000000000000000000000000000000000000081526004016122359190613cb9565b60405180910390fd5b5050565b61224c8282611903565b5050565b60006122718473ffffffffffffffffffffffffffffffffffffffff16612ce6565b156123da578373ffffffffffffffffffffffffffffffffffffffff1663150b7a0261229a6114e9565b8786866040518563ffffffff1660e01b81526004016122bc9493929190613b5a565b602060405180830381600087803b1580156122d657600080fd5b505af192505050801561230757506040513d601f19601f8201168201806040525081019061230491906134c9565b60015b61238a573d8060008114612337576040519150601f19603f3d011682016040523d82523d6000602084013e61233c565b606091505b50600081511415612382576040517f08c379a000000000000000000000000000000000000000000000000000000000815260040161237990613d3b565b60405180910390fd5b805181602001fd5b63150b7a0260e01b7bffffffffffffffffffffffffffffffffffffffffffffffffffffffff1916817bffffffffffffffffffffffffffffffffffffffffffffffffffffffff1916149150506123df565b600190505b949350505050565b6060600082141561242f576040518060400160405280600181526020017f3000000000000000000000000000000000000000000000000000000000000000815250905061258f565b600082905060005b6000821461246157808061244a9061436f565b915050600a8261245a9190614156565b9150612437565b60008167ffffffffffffffff8111156124a3577f4e487b7100000000000000000000000000000000000000000000000000000000600052604160045260246000fd5b6040519080825280601f01601f1916602001820160405280156124d55781602001600182028036833780820191505090505b5090505b60008514612588576001826124ee91906141e1565b9150600a856124fd91906143c2565b60306125099190614100565b60f81b818381518110612545577f4e487b7100000000000000000000000000000000000000000000000000000000600052603260045260246000fd5b60200101907effffffffffffffffffffffffffffffffffffffffffffffffffffffffffffff1916908160001a905350600a856125819190614156565b94506124d9565b8093505050505b919050565b60006125a76125a1612d09565b83612e23565b9050919050565b6000806041835114156125f05760008060006020860151925060408601519150606086015160001a90506125e487828585612e56565b9450945050505061262a565b604083511415612621576000806020850151915060408501519050612616868383612f63565b93509350505061262a565b60006002915091505b9250929050565b6000600481111561266b577f4e487b7100000000000000000000000000000000000000000000000000000000600052602160045260246000fd5b8160048111156126a4577f4e487b7100000000000000000000000000000000000000000000000000000000600052602160045260246000fd5b14156126af5761297f565b600160048111156126e9577f4e487b7100000000000000000000000000000000000000000000000000000000600052602160045260246000fd5b816004811115612722577f4e487b7100000000000000000000000000000000000000000000000000000000600052602160045260246000fd5b1415612763576040517f08c379a000000000000000000000000000000000000000000000000000000000815260040161275a90613cdb565b60405180910390fd5b6002600481111561279d577f4e487b7100000000000000000000000000000000000000000000000000000000600052602160045260246000fd5b8160048111156127d6577f4e487b7100000000000000000000000000000000000000000000000000000000600052602160045260246000fd5b1415612817576040517f08c379a000000000000000000000000000000000000000000000000000000000815260040161280e90613d1b565b60405180910390fd5b60036004811115612851577f4e487b7100000000000000000000000000000000000000000000000000000000600052602160045260246000fd5b81600481111561288a577f4e487b7100000000000000000000000000000000000000000000000000000000600052602160045260246000fd5b14156128cb576040517f08c379a00000000000000000000000000000000000000000000000000000000081526004016128c290613ddb565b60405180910390fd5b600480811115612904577f4e487b7100000000000000000000000000000000000000000000000000000000600052602160045260246000fd5b81600481111561293d577f4e487b7100000000000000000000000000000000000000000000000000000000600052602160045260246000fd5b141561297e576040517f08c379a000000000000000000000000000000000000000000000000000000000815260040161297590613ebb565b60405180910390fd5b5b50565b60007f01ffc9a7000000000000000000000000000000000000000000000000000000007bffffffffffffffffffffffffffffffffffffffffffffffffffffffff1916827bffffffffffffffffffffffffffffffffffffffffffffffffffffffff1916149050919050565b6060600060028360026129ff9190614187565b612a099190614100565b67ffffffffffffffff811115612a48577f4e487b7100000000000000000000000000000000000000000000000000000000600052604160045260246000fd5b6040519080825280601f01601f191660200182016040528015612a7a5781602001600182028036833780820191505090505b5090507f300000000000000000000000000000000000000000000000000000000000000081600081518110612ad8577f4e487b7100000000000000000000000000000000000000000000000000000000600052603260045260246000fd5b60200101907effffffffffffffffffffffffffffffffffffffffffffffffffffffffffffff1916908160001a9053507f780000000000000000000000000000000000000000000000000000000000000081600181518110612b62577f4e487b7100000000000000000000000000000000000000000000000000000000600052603260045260246000fd5b60200101907effffffffffffffffffffffffffffffffffffffffffffffffffffffffffffff1916908160001a90535060006001846002612ba29190614187565b612bac9190614100565b90505b6001811115612c98577f3031323334353637383961626364656600000000000000000000000000000000600f861660108110612c14577f4e487b7100000000000000000000000000000000000000000000000000000000600052603260045260246000fd5b1a60f81b828281518110612c51577f4e487b7100000000000000000000000000000000000000000000000000000000600052603260045260246000fd5b60200101907effffffffffffffffffffffffffffffffffffffffffffffffffffffffffffff1916908160001a905350600485901c945080612c91906142e2565b9050612baf565b5060008414612cdc576040517f08c379a0000000000000000000000000000000000000000000000000000000008152600401612cd390613cfb565b60405180910390fd5b8091505092915050565b6000808273ffffffffffffffffffffffffffffffffffffffff163b119050919050565b60007f000000000000000000000000000000000000000000000000000000000000000073ffffffffffffffffffffffffffffffffffffffff163073ffffffffffffffffffffffffffffffffffffffff16148015612d8557507f000000000000000000000000000000000000000000000000000000000000000046145b15612db2577f00000000000000000000000000000000000000000000000000000000000000009050612e20565b612e1d7f00000000000000000000000000000000000000000000000000000000000000007f00000000000000000000000000000000000000000000000000000000000000007f0000000000000000000000000000000000000000000000000000000000000000612fc2565b90505b90565b60008282604051602001612e38929190613ace565b60405160208183030381529060405280519060200120905092915050565b6000807f7fffffffffffffffffffffffffffffff5d576e7357a4501ddfe92f46681b20a08360001c1115612e91576000600391509150612f5a565b601b8560ff1614158015612ea95750601c8560ff1614155b15612ebb576000600491509150612f5a565b600060018787878760405160008152602001604052604051612ee09493929190613c74565b6020604051602081039080840390855afa158015612f02573d6000803e3d6000fd5b505050602060405103519050600073ffffffffffffffffffffffffffffffffffffffff168173ffffffffffffffffffffffffffffffffffffffff161415612f5157600060019250925050612f5a565b80600092509250505b94509492505050565b60008060007f7fffffffffffffffffffffffffffffffffffffffffffffffffffffffffffffff60001b841690506000601b60ff8660001c901c612fa69190614100565b9050612fb487828885612e56565b935093505050935093915050565b60008383834630604051602001612fdd959493929190613bdc565b6040516020818303038152906040528051906020012090509392505050565b8280546130089061430c565b90600052602060002090601f01602090048101928261302a5760008555613071565b82601f1061304357805160ff1916838001178555613071565b82800160010185558215613071579182015b82811115613070578251825591602001919060010190613055565b5b50905061307e9190613082565b5090565b5b8082111561309b576000816000905550600101613083565b5090565b60006130b26130ad8461405b565b614036565b9050828152602081018484840111156130ca57600080fd5b6130d58482856142a0565b509392505050565b60006130f06130eb8461408c565b614036565b90508281526020810184848401111561310857600080fd5b6131138482856142a0565b509392505050565b60008135905061312a81614c11565b92915050565b60008135905061313f81614c28565b92915050565b60008135905061315481614c3f565b92915050565b60008135905061316981614c56565b92915050565b60008151905061317e81614c56565b92915050565b600082601f83011261319557600080fd5b81356131a584826020860161309f565b91505092915050565b600082601f8301126131bf57600080fd5b81356131cf8482602086016130dd565b91505092915050565b6000813590506131e781614c6d565b92915050565b6000602082840312156131ff57600080fd5b600061320d8482850161311b565b91505092915050565b6000806040838503121561322957600080fd5b60006132378582860161311b565b92505060206132488582860161311b565b9150509250929050565b60008060006060848603121561326757600080fd5b60006132758682870161311b565b93505060206132868682870161311b565b9250506040613297868287016131d8565b9150509250925092565b600080600080608085870312156132b757600080fd5b60006132c58782880161311b565b94505060206132d68782880161311b565b93505060406132e7878288016131d8565b925050606085013567ffffffffffffffff81111561330457600080fd5b61331087828801613184565b91505092959194509250565b6000806040838503121561332f57600080fd5b600061333d8582860161311b565b925050602061334e85828601613130565b9150509250929050565b6000806040838503121561336b57600080fd5b60006133798582860161311b565b925050602061338a858286016131d8565b9150509250929050565b600080600080600060a086880312156133ac57600080fd5b60006133ba8882890161311b565b95505060206133cb888289016131d8565b94505060406133dc888289016131d8565b935050606086013567ffffffffffffffff8111156133f957600080fd5b613405888289016131ae565b925050608086013567ffffffffffffffff81111561342257600080fd5b61342e88828901613184565b9150509295509295909350565b60006020828403121561344d57600080fd5b600061345b84828501613145565b91505092915050565b6000806040838503121561347757600080fd5b600061348585828601613145565b92505060206134968582860161311b565b9150509250929050565b6000602082840312156134b257600080fd5b60006134c08482850161315a565b91505092915050565b6000602082840312156134db57600080fd5b60006134e98482850161316f565b91505092915050565b60006020828403121561350457600080fd5b6000613512848285016131d8565b91505092915050565b6000806000806080858703121561353157600080fd5b600061353f878288016131d8565b9450506020613550878288016131d8565b935050604085013567ffffffffffffffff81111561356d57600080fd5b613579878288016131ae565b925050606085013567ffffffffffffffff81111561359657600080fd5b6135a287828801613184565b91505092959194509250565b6135b781614215565b82525050565b6135c681614227565b82525050565b6135d581614233565b82525050565b6135ec6135e782614233565b6143b8565b82525050565b60006135fd826140bd565b61360781856140d3565b93506136178185602086016142af565b613620816144af565b840191505092915050565b6000613636826140c8565b61364081856140e4565b93506136508185602086016142af565b613659816144af565b840191505092915050565b600061366f826140c8565b61367981856140f5565b93506136898185602086016142af565b80840191505092915050565b60006136a26018836140e4565b91506136ad826144c0565b602082019050919050565b60006136c56020836140e4565b91506136d0826144e9565b602082019050919050565b60006136e8601f836140e4565b91506136f382614512565b602082019050919050565b600061370b6032836140e4565b91506137168261453b565b604082019050919050565b600061372e6025836140e4565b91506137398261458a565b604082019050919050565b6000613751601c836140e4565b915061375c826145d9565b602082019050919050565b60006137746002836140f5565b915061377f82614602565b600282019050919050565b60006137976024836140e4565b91506137a28261462b565b604082019050919050565b60006137ba6019836140e4565b91506137c58261467a565b602082019050919050565b60006137dd6022836140e4565b91506137e8826146a3565b604082019050919050565b6000613800602c836140e4565b915061380b826146f2565b604082019050919050565b60006138236038836140e4565b915061382e82614741565b604082019050919050565b6000613846602a836140e4565b915061385182614790565b604082019050919050565b60006138696029836140e4565b9150613874826147df565b604082019050919050565b600061388c602e836140e4565b91506138978261482e565b604082019050919050565b60006138af601e836140e4565b91506138ba8261487d565b602082019050919050565b60006138d26022836140e4565b91506138dd826148a6565b604082019050919050565b60006138f5601c836140e4565b9150613900826148f5565b602082019050919050565b60006139186020836140e4565b91506139238261491e565b602082019050919050565b600061393b6031836140e4565b915061394682614947565b604082019050919050565b600061395e602c836140e4565b915061396982614996565b604082019050919050565b6000613981602f836140e4565b915061398c826149e5565b604082019050919050565b60006139a46024836140e4565b91506139af82614a34565b604082019050919050565b60006139c76021836140e4565b91506139d282614a83565b604082019050919050565b60006139ea6021836140e4565b91506139f582614ad2565b604082019050919050565b6000613a0d6031836140e4565b9150613a1882614b21565b604082019050919050565b6000613a306017836140f5565b9150613a3b82614b70565b601782019050919050565b6000613a536011836140f5565b9150613a5e82614b99565b601182019050919050565b6000613a76602f836140e4565b9150613a8182614bc2565b604082019050919050565b613a9581614289565b82525050565b613aa481614293565b82525050565b6000613ab68285613664565b9150613ac28284613664565b91508190509392505050565b6000613ad982613767565b9150613ae582856135db565b602082019150613af582846135db565b6020820191508190509392505050565b6000613b1082613a23565b9150613b1c8285613664565b9150613b2782613a46565b9150613b338284613664565b91508190509392505050565b6000602082019050613b5460008301846135ae565b92915050565b6000608082019050613b6f60008301876135ae565b613b7c60208301866135ae565b613b896040830185613a8c565b8181036060830152613b9b81846135f2565b905095945050505050565b6000602082019050613bbb60008301846135bd565b92915050565b6000602082019050613bd660008301846135cc565b92915050565b600060a082019050613bf160008301886135cc565b613bfe60208301876135cc565b613c0b60408301866135cc565b613c186060830185613a8c565b613c2560808301846135ae565b9695505050505050565b6000608082019050613c4460008301876135cc565b613c516020830186613a8c565b613c5e6040830185613a8c565b613c6b60608301846135cc565b95945050505050565b6000608082019050613c8960008301876135cc565b613c966020830186613a9b565b613ca360408301856135cc565b613cb060608301846135cc565b95945050505050565b60006020820190508181036000830152613cd3818461362b565b905092915050565b60006020820190508181036000830152613cf481613695565b9050919050565b60006020820190508181036000830152613d14816136b8565b9050919050565b60006020820190508181036000830152613d34816136db565b9050919050565b60006020820190508181036000830152613d54816136fe565b9050919050565b60006020820190508181036000830152613d7481613721565b9050919050565b60006020820190508181036000830152613d9481613744565b9050919050565b60006020820190508181036000830152613db48161378a565b9050919050565b60006020820190508181036000830152613dd4816137ad565b9050919050565b60006020820190508181036000830152613df4816137d0565b9050919050565b60006020820190508181036000830152613e14816137f3565b9050919050565b60006020820190508181036000830152613e3481613816565b9050919050565b60006020820190508181036000830152613e5481613839565b9050919050565b60006020820190508181036000830152613e748161385c565b9050919050565b60006020820190508181036000830152613e948161387f565b9050919050565b60006020820190508181036000830152613eb4816138a2565b9050919050565b60006020820190508181036000830152613ed4816138c5565b9050919050565b60006020820190508181036000830152613ef4816138e8565b9050919050565b60006020820190508181036000830152613f148161390b565b9050919050565b60006020820190508181036000830152613f348161392e565b9050919050565b60006020820190508181036000830152613f5481613951565b9050919050565b60006020820190508181036000830152613f7481613974565b9050919050565b60006020820190508181036000830152613f9481613997565b9050919050565b60006020820190508181036000830152613fb4816139ba565b9050919050565b60006020820190508181036000830152613fd4816139dd565b9050919050565b60006020820190508181036000830152613ff481613a00565b9050919050565b6000602082019050818103600083015261401481613a69565b9050919050565b60006020820190506140306000830184613a8c565b92915050565b6000614040614051565b905061404c828261433e565b919050565b6000604051905090565b600067ffffffffffffffff82111561407657614075614480565b5b61407f826144af565b9050602081019050919050565b600067ffffffffffffffff8211156140a7576140a6614480565b5b6140b0826144af565b9050602081019050919050565b600081519050919050565b600081519050919050565b600082825260208201905092915050565b600082825260208201905092915050565b600081905092915050565b600061410b82614289565b915061411683614289565b9250827fffffffffffffffffffffffffffffffffffffffffffffffffffffffffffffffff0382111561414b5761414a6143f3565b5b828201905092915050565b600061416182614289565b915061416c83614289565b92508261417c5761417b614422565b5b828204905092915050565b600061419282614289565b915061419d83614289565b9250817fffffffffffffffffffffffffffffffffffffffffffffffffffffffffffffffff04831182151516156141d6576141d56143f3565b5b828202905092915050565b60006141ec82614289565b91506141f783614289565b92508282101561420a576142096143f3565b5b828203905092915050565b600061422082614269565b9050919050565b60008115159050919050565b6000819050919050565b60007fffffffff0000000000000000000000000000000000000000000000000000000082169050919050565b600073ffffffffffffffffffffffffffffffffffffffff82169050919050565b6000819050919050565b600060ff82169050919050565b82818337600083830152505050565b60005b838110156142cd5780820151818401526020810190506142b2565b838111156142dc576000848401525b50505050565b60006142ed82614289565b91506000821415614301576143006143f3565b5b600182039050919050565b6000600282049050600182168061432457607f821691505b6020821081141561433857614337614451565b5b50919050565b614347826144af565b810181811067ffffffffffffffff8211171561436657614365614480565b5b80604052505050565b600061437a82614289565b91507fffffffffffffffffffffffffffffffffffffffffffffffffffffffffffffffff8214156143ad576143ac6143f3565b5b600182019050919050565b6000819050919050565b60006143cd82614289565b91506143d883614289565b9250826143e8576143e7614422565b5b828206905092915050565b7f4e487b7100000000000000000000000000000000000000000000000000000000600052601160045260246000fd5b7f4e487b7100000000000000000000000000000000000000000000000000000000600052601260045260246000fd5b7f4e487b7100000000000000000000000000000000000000000000000000000000600052602260045260246000fd5b7f4e487b7100000000000000000000000000000000000000000000000000000000600052604160045260246000fd5b6000601f19601f8301169050919050565b7f45434453413a20696e76616c6964207369676e61747572650000000000000000600082015250565b7f537472696e67733a20686578206c656e67746820696e73756666696369656e74600082015250565b7f45434453413a20696e76616c6964207369676e6174757265206c656e67746800600082015250565b7f4552433732313a207472616e7366657220746f206e6f6e20455243373231526560008201527f63656976657220696d706c656d656e7465720000000000000000000000000000602082015250565b7f4552433732313a207472616e736665722066726f6d20696e636f72726563742060008201527f6f776e6572000000000000000000000000000000000000000000000000000000602082015250565b7f4552433732313a20746f6b656e20616c7265616479206d696e74656400000000600082015250565b7f1901000000000000000000000000000000000000000000000000000000000000600082015250565b7f4552433732313a207472616e7366657220746f20746865207a65726f2061646460008201527f7265737300000000000000000000000000000000000000000000000000000000602082015250565b7f4552433732313a20617070726f766520746f2063616c6c657200000000000000600082015250565b7f45434453413a20696e76616c6964207369676e6174757265202773272076616c60008201527f7565000000000000000000000000000000000000000000000000000000000000602082015250565b7f4552433732313a206f70657261746f7220717565727920666f72206e6f6e657860008201527f697374656e7420746f6b656e0000000000000000000000000000000000000000602082015250565b7f4552433732313a20617070726f76652063616c6c6572206973206e6f74206f7760008201527f6e6572206e6f7220617070726f76656420666f7220616c6c0000000000000000602082015250565b7f4552433732313a2062616c616e636520717565727920666f7220746865207a6560008201527f726f206164647265737300000000000000000000000000000000000000000000602082015250565b7f4552433732313a206f776e657220717565727920666f72206e6f6e657869737460008201527f656e7420746f6b656e0000000000000000000000000000000000000000000000602082015250565b7f45524337323155524953746f726167653a2055524920736574206f66206e6f6e60008201527f6578697374656e7420746f6b656e000000000000000000000000000000000000602082015250565b7f4e6f20616d6f756e74206c65667420746f2062652077697468647261776e0000600082015250565b7f45434453413a20696e76616c6964207369676e6174757265202776272076616c60008201527f7565000000000000000000000000000000000000000000000000000000000000602082015250565b7f496e73756666696369656e742066756e647320746f2072656465656d00000000600082015250565b7f4552433732313a206d696e7420746f20746865207a65726f2061646472657373600082015250565b7f45524337323155524953746f726167653a2055524920717565727920666f722060008201527f6e6f6e6578697374656e7420746f6b656e000000000000000000000000000000602082015250565b7f4552433732313a20617070726f76656420717565727920666f72206e6f6e657860008201527f697374656e7420746f6b656e0000000000000000000000000000000000000000602082015250565b7f4552433732314d657461646174613a2055524920717565727920666f72206e6f60008201527f6e6578697374656e7420746f6b656e0000000000000000000000000000000000602082015250565b7f4f6e6c7920617574686f72697a6564206d696e746572732063616e207769746860008201527f6472617700000000000000000000000000000000000000000000000000000000602082015250565b7f4552433732313a20617070726f76616c20746f2063757272656e74206f776e6560008201527f7200000000000000000000000000000000000000000000000000000000000000602082015250565b7f5369676e617475726520696e76616c6964206f7220756e617574686f72697a6560008201527f6400000000000000000000000000000000000000000000000000000000000000602082015250565b7f4552433732313a207472616e736665722063616c6c6572206973206e6f74206f60008201527f776e6572206e6f7220617070726f766564000000000000000000000000000000602082015250565b7f416363657373436f6e74726f6c3a206163636f756e7420000000000000000000600082015250565b7f206973206d697373696e6720726f6c6520000000000000000000000000000000600082015250565b7f416363657373436f6e74726f6c3a2063616e206f6e6c792072656e6f756e636560008201527f20726f6c657320666f722073656c660000000000000000000000000000000000602082015250565b614c1a81614215565b8114614c2557600080fd5b50565b614c3181614227565b8114614c3c57600080fd5b50565b614c4881614233565b8114614c5357600080fd5b50565b614c5f8161423d565b8114614c6a57600080fd5b50565b614c7681614289565b8114614c8157600080fd5b5056fea2646970667358221220818034f4d9973a6dbeb606757c917778e3619fbbafd949d077fefc84e73e0c7164736f6c63430008040033",
  "linkReferences": {},
  "deployedLinkReferences": {}
}